:020000040800F2
:10000000900400200101000819240008F71F0008CF
:100010001524000885090008A52A00080000000032
:100020000000000000000000000000007D28000823
:10003000B109000800000000A5240008812900087B
:100040001B0100081B0100081B0100081B01000820
:100050001B0100081B0100081B0100081B01000810
:100060001B0100081B0100081B0100081B01000800
:100070001B0100081B0100081B0100081B010008F0
:100080001B0100081B0100081B0100081B010008E0
:100090001B0100081B0100081B0100081B010008D0
:1000A0001B0100081B0100081B0100081B010008C0
:1000B000952A00081B0100081B0100081B0100080D
:1000C0001B0100081B0100081B0100081B010008A0
:1000D0001B0100081B0100081B0100081B01000890
:1000E0001B0100081B0100081B010008DFF80CD0F1
:1000F00000F0CAFB00480047692B0008900400206C
:100100000648804706480047FEE7FEE7FEE7FEE7B1
:10011000FEE7FEE7FEE7FEE7FEE7FEE73D2A000812
:10012000ED000008202A04DB203A21FA02F0002129
:10013000704721FA02F3D040C2F1200291400843F7
:100140001946704740EA01039B0703D009E008C93C
:10015000121F08C0042AFAD203E011F8013B00F88C
:10016000013B521EF9D27047D2B201E000F8012BD8
:10017000491EFBD270470022F6E710B513460A4627
:1001800004461946FFF7F0FF204610BDF0B480EAA0
:100190000102D40F4200B2EB410F02D202460846E0
:1001A00011464A0042D0C30DDDB2C1F3C752AD1AA9
:1001B000202D35DAC1F3160141F4000204B1524298
:1001C000C5F1200602FA06F12A411044B3EBD05FD4
:1001D00023D0C4B1012DA0EBC35009DCF0BC4FF01B
:1001E000004202EAC352DBB200F5000000F0C0BAE0
:1001F000400000F1807000EBC350A0F1807040EA35
:10020000D170490009E0490841EAC071A0EBC35030
:1002100000F50000400800EBC350F0BC00F09FBAAE
:100220006142012202EB4101001BF6E7F0BC70477E
:1002300081F00041AAE780F00040A7E780EA0102D0
:1002400010B502F00043400022D04A001FD0010E3A
:1002500001EB1261C0F35600C2F3560240F40000F5
:1002600042F40002A0FB022000047F39140400D0F5
:10027000401C50EA124001D44000491EC2B20C0694
:1002800004EBD010401C4008802A02D003E000207C
:1002900010BD20F00100002900DA0020184310BD35
:1002A00030B480EA010202F0004530F0004221F053
:1002B000004013D090B1C30DD40DC2F31601C0F3AA
:1002C0001600E41A41F4000140F400027D3491422A
:1002D00001D3641C00E04900002C02DA30BC00208D
:1002E00070474FF400000023914201D3891A034361
:1002F00040084FEA4101F7D151B1914202D14FF08C
:10030000004105E002D24FF0010101E06FF0010170
:1003100003EBC450284430BC00F021BA2DE9FE4F55
:10032000804681EA0300C00F0C46009021F0004196
:1003300023F00045B8EB0200A94105D24046214612
:1003400090461C460B46024623F00040104347D01F
:10035000270DC7F30A00C3F30A510290401A019017
:1003600040286BDAC3F3130040F4801B00989246D8
:1003700020B10023D2EB030A63EB0B0B0198594623
:10038000C0F14002504600F0C9F906460D465046FD
:100390005946019A00F0D1F910EB080061410024A0
:1003A00087EA115284EAE7731A4340D0009A62B395
:1003B000019A012A4FEA075215DC001B61EB02018A
:1003C0004FF0004202EA0752CDE90042001C41F51D
:1003D000801132462B4600F008FA03B0BDE8F08FDA
:1003E00040462146F9E7001B61EB0201001C41F584
:1003F000801300185B412018A2F5001747EB03019A
:1004000040EAD570B6196D4111E06D084FEA360625
:1004100045EAC0754FEA0752001B61EB0201001C60
:1004200041F5801149084FEA300000195141324628
:100430002B4603B0BDE8F04F00F0C8B90098012288
:1004400040000023D0EB020263EBE07300982146EA
:100450004FEAE074B8EB000061EB0401E9E783F0D8
:1004600000435BE781F0004158E72DE9FE4F81EA48
:10047000030404F0004421F0004100944FF0000B0D
:1004800023F0004350EA01045ED052EA03045BD03B
:10049000C3F30A54C1F30A552C44A4F2F334019473
:1004A000A0FB0254C1F3130141F48011C3F3130301
:1004B00043F4801301FB024400FB034E840A970AB5
:1004C00044EA815447EA8357A4FB076802958D0AE2
:1004D00005FB07854FEA932C04FB0C542705029D6E
:1004E0004FEA065847EA1637B5EB08056EEB070CDE
:1004F000870E920E47EA811742EA8312A7FB020198
:10050000B6EB0B0164EB00042B0D43EA0C335E18D1
:1005100044EB1C50DA465146E7FB0201C5F31304D5
:100520004FEA0B3343EA14534FEA0432019C43EA87
:100530000603A4F10C040294009CCDE900B400F081
:1005400054F903B0BDE8F08F00200146F9E72DE92A
:10055000F04D81EA030404F0004B21F000451446FD
:100560004FF0000A23F0004150EA050220D054EA7F
:1005700001021DD0C5F30A570246C5F31303C1F3A8
:100580001300C1F30A5640F4801543F48013A7EB1F
:100590000608101BD64608F2FD3873EB050002D39F
:1005A00008F1010801E092185B41B8F1000F03DA8D
:1005B00000200146BDE8F08D00204FF48011064672
:1005C00084460EE0171B73EB050705D3121B63EB84
:1005D000050306434CEA010C49084FEA3000921823
:1005E0005B4150EA0107EDD152EA030012D082EAE2
:1005F000040083EA0501084305D0101BAB4106D275
:100600000122002306E000224FF0004302E06FF0D9
:10061000010253101AEB06004CEB085110EB0A00D4
:1006200041EB0B01BDE8F04D00F0D0B8962300225D
:10063000114600F09DB800F0004230F000400AD0B2
:10064000C10D01F56071C0F3160042EA0151C20804
:1006500040071143704700200146704730B5041E23
:1006600071F1000404DB4FF00044404264EB0101EF
:10067000141E73F1000405DB1C464FF00043524288
:1006800063EB04038B4208BF824230BD30B5041EC9
:1006900071F1000404DB4FF00044404264EB0101BF
:1006A000141E73F1000405DB1C464FF00043524258
:1006B00063EB0403994208BF904230BD01F0004350
:1006C00030B421F0004150EA010206D00A0DA2F533
:1006D0006072C1F31301002A02DC30BC00207047B5
:1006E000440F44EAC104C100E01830BC00EBC25022
:1006F00000F035B8002801DBC0F10040002901DB23
:10070000C1F1004181427047002801DBC0F1004087
:10071000002901DBC1F1004188427047202A04DB37
:10072000203A00FA02F1002070479140C2F1200304
:1007300020FA03F3194390407047202A06DBCB17B9
:10074000203A41FA02F043EAE07306E041FA02F38C
:10075000D040C2F120029140084319467047002959
:10076000A8BF7047401C490008BF20F00100704737
:1007700010B4B0FA80FC00FA0CF050EA010404BF97
:1007800010BC704749B1CCF1200421FA04F411FAED
:100790000CF118BF012121430843A3EB0C01CB1D31
:1007A0004FEA00614FEA102042BF002010BC7047A2
:1007B00000EBC35010440029A4BF10BC7047401C7C
:1007C000490008BF20F0010010BC704710B5141E8E
:1007D00073F1000408DA401C41F1000192185B41FA
:1007E0001A4301D120F0010010BD2DE9F04D9246D1
:1007F0009B4611B1B1FA81F202E0B0FA80F22032E8
:100800009046FFF78BFF04460F4640EA0A0041EA94
:100810000B0153465A46084313D0114653EA0100D0
:1008200019D0C8F140025046FFF77CFC05460E4641
:10083000504659464246FFF771FF084305D0012054
:1008400004E020463946BDE8F08D0020054346EA25
:10085000E0762C4337430A986305E40AA0EB0800CE
:100860000022FD0A44EA47540A3002D5002001461E
:10087000E9E7010510196941DDE9084500196941F9
:10088000BDE8F04DA2E70000064C074D06E0E06829
:1008900040F0010394E8070098471034AC42F6D3C7
:1008A000FFF728FCD0300008F030000870B504468F
:1008B00000252068806800F00100F0B120688068A1
:1008C00020F001002168886000F042FD05460EE03E
:1008D00000F03EFD401B022809D9A06A40F010003C
:1008E000A062E06A40F00100E062012070BD206873
:1008F000806800F001000028EAD10020F6E700003F
:1009000038B504460025002000902068806800F07B
:10091000010080BB2068806840F001002168886089
:10092000164800681649B0FBF1F0009002E000980C
:10093000401E009000980028F9D100F009FD0546FE
:1009400013E000F005FD401B02280ED9A06A40F01C
:100950001000A062E06A40F00100E06200BF0020E9
:1009600084F8240000BF012038BD2068806800F0B2
:1009700001000028E5D00020F6E700000400002078
:1009800040420F0000BFFEE710B500224FF4805137
:10099000014800F0D7FC10BD000C014010B500224A
:1009A0004FF40051014800F0CDFC10BD000C014097
:1009B000704770B50446A6B2002505E04FF47A7082
:1009C00000F006F8681C85B2B542F7DB70BD000088
:1009D00070B5034600224FF0E02675690D4E36785B
:1009E00003FB06F44FF0E026B16910E04FF0E0267B
:1009F000B06988420BD0884202D20E1A324402E01B
:100A00002E1A0E4432440146A24200D300E0EDE724
:100A100000BF70BD0800002038B50246002300204A
:100A2000009000BF92F82400012801D1022038BDB7
:100A3000012082F8240000BF4868072812D21068FD
:100A4000406B0C79641E04EB84051F24AC40A0436A
:100A50000D796D1E05EB85050C68AC4020431468CC
:100A6000606327E048680D2812D21068006B0C798B
:100A7000E41F04EB84051F24AC40A0430D79ED1F57
:100A800005EB85050C68AC4020431468206311E039
:100A90001068C06A0C790D3C04EB84051F24AC403F
:100AA000A0430D790D3D05EB85050C68AC40204356
:100AB0001468E06208680A2812D31068C0680C78CD
:100AC0000A3C04EB44050724AC40A0430D780A3DE2
:100AD00005EB45058C68AC4020431468E0600FE0EE
:100AE000106800690C7804EB44050724AC40A0436F
:100AF0000D7805EB45058C68AC40204314682061F7
:100B00000868102802D00868112827D1174C1068EF
:100B1000A0421ED11068806800F40000F0B910688F
:100B2000806840F400001468A0600868102815D19F
:100B30000F4800680F4CB0FBF4F000EB8000400061
:100B4000009002E00098401E009000980028F9D123
:100B500004E0906A40F020009062012300BF002072
:100B600082F8240000BF184661E70000002401401D
:100B70000400002040420F0001460868C06C704726
:100B80002DE9F0410446002700250026A84614B9A7
:100B90000120BDE8F081A06810B1606900B100BF1C
:100BA000A06A30B90020E06284F82400204600F0FA
:100BB00089F82046FFF77AFE0746A06A00F0100089
:100BC000002873D1002F71D1A06A20F4885040F022
:100BD0000200A062E16960680843E16840EA410000
:100BE0000643A068B0F5807F02D0A068012802D13A
:100BF0004FF4807000E0002005436069012811D1A6
:100C0000E06838B9A069401E4FF4006141EA403005
:100C1000054307E0A06A40F02000A062E06A40F0CF
:100C20000100E0622068406820F4694028432168A0
:100C30004860206880682149084030432168886006
:100C4000A068B0F5807F02D0A068012802D14FF4DF
:100C5000807000E00020B0F5807F03D1208A401E24
:100C60004FEA00582068C06A20F4700040EA08008B
:100C70002168C8622068806811490840B04208D1E4
:100C80000020E062A06A20F0020040F00100A062B3
:100C900011E0A06A20F0020040F01000A062E06ABB
:100CA00040F00100E062012705E0FFE7A06A40F0A4
:100CB0001000A062012738466BE70000FDF7E1FF56
:100CC000FE0E1FFF10B586B0044616492068884204
:100CD00025D100BF1448806940F400701249886132
:100CE0000846806900F40070019000BF00BF022038
:100CF00002900320039002A90C4800F089F9042017
:100D000002900320039002A9084800F081F908200E
:100D100002900320039002A9044800F079F906B07C
:100D200010BD0000002401400010024000080140F6
:100D3000F8B504460D46002600200090002700F07C
:100D400007FB06462068806800F4807050B1A06AF6
:100D500040F02000A06200BF002084F8240000BF03
:100D60000120F8BD2068406800F48070F8B9206860
:100D7000C06A00F47000D0B912E0681C80B125B1DF
:100D800000F0E6FA801BA8420AD9A06A40F00400ED
:100D9000A06200BF002084F8240000BF0320E0E729
:100DA0002068006800F002000028E6D050E0022031
:100DB00000F0A0FB36490968B1FBF0F02168096931
:100DC000344A114091B92168C9689211114069B93A
:100DD00021680969304A114031B92168C968921106
:100DE000114009B9142117E0292115E0216809698A
:100DF000294A114021B92168C9689211114041B1B5
:100E000021680969254A114029B92168C96811403A
:100E100009B9542100E0FC2100FB01F715E0681C32
:100E200080B125B100F094FA801BA8420AD9A06ACB
:100E300040F00400A06200BF002084F8240000BF3E
:100E400003208EE70098401C00900098B842E6D33B
:100E50006FF0120021680860A06A40F40070A06280
:100E60002068806800F46020B0F5602F0DD1E06844
:100E700058B9A06A20F48070A062A06A00F4805083
:100E800018B9A06A40F00100A062002069E70000E4
:100E900004000020244992249224491249922400FB
:100EA00070B50446002500BF94F82400012801D144
:100EB000022070BD012084F8240000BF2046FFF707
:100EC0001FFD0546002D77D1A06A40F2012188431D
:100ED00040F48070A0623C492068884208D13B48B9
:100EE000006800F4702008B9012002E0002000E052
:100EF000012078B1A06A20F48010A06220684068C8
:100F000000F4806000B3A06A20F4005040F48050E8
:100F1000A06219E0A06A40F48010A0622B49091F6A
:100F20002068884203D028492068884204D1274895
:100F3000006800F4806000E0002028B1A06A20F47E
:100F4000005040F48050A062A06A00F4805020B1AC
:100F5000E06A20F00600E06201E00020E06200BFED
:100F6000002084F8240000BFC01E216808602068AB
:100F7000806800F46020B0F5602F16D11249206817
:100F8000884208D11148006800F4702008B9012097
:100F900002E0002000E0012038B12068806840F4C1
:100FA000A000216888600CE006E02068806840F4BA
:100FB00080102168886004E000BF002084F82400CD
:100FC00000BF284675E700000028014004240140C6
:100FD00070B50446002500BF94F82400012801D113
:100FE000022070BD012084F8240000BF2046FFF7D6
:100FF0005DFC05462DB9A06A20F4885040F0010040
:10100000A06200BF002084F8240000BF2846E8E763
:101010002DE9F847034600240020002584460027D8
:1010200000226EE14FF0010808FA02F4D1F80080C6
:1010300008EA0400A0427DD1DFF8D0A2D1F80480F4
:10104000A8EB0A09D0453AD014DCB8F1030F50D010
:1010500009DCB8F1000F31D0B8F1010F1CD0B8F1A4
:10106000020F49D120E0B8F1110F18D0B8F1120FDA
:1010700042D11EE0B9F5881F25D006DCB9F5803FC6
:1010800020D0B9F5801F37D11AE0B9F5001F18D06C
:10109000B9F5041F30D117E0D1F80CC02DE0D1F81C
:1010A0000C8008F1040C28E0D1F80C8008F1080C41
:1010B00023E0D1F80C8008F10C0C1EE000BF00BF4B
:1010C00000BF00BF00BF00BFD1F80880B8F1000F1B
:1010D00002D14FF0040C0BE0D1F80880B8F1010FF9
:1010E00003D14FF0080C1C6102E04FF0080C5C616A
:1010F00003E04FF0000C00E000BF00BFFF2801D864
:10110000984601E003F104084646FF2802D84FEA5A
:10111000820803E0A2F108084FEA88084746D6F89B
:1011200000804FF00F0909FA07F928EA09080CFABC
:1011300007F900E088E048EA0908C6F80080D1F81D
:10114000048008F08058B8F1805F7DD100BFDFF8DF
:10115000C081D8F8188048F00108DFF8B491C9F8C8
:101160001880C846D8F8188008F00108CDF800802B
:1011700000BF00BF4FEAB9384FEA920958F829502A
:101180004FEA82784FEA18794FF00F0808FA09F809
:1011900025EA0805DFF87C81434502D14FF00008BD
:1011A00016E0DFF87481434502D14FF001080FE0EB
:1011B000DFF86881434502D14FF0020808E0DFF80C
:1011C0006081434502D14FF0030801E04FF004086D
:1011D0004FEA82794FEA197908FA09F848EA0505D1
:1011E000DFF840814FEA920948F82950D1F804808D
:1011F00008F48038B8F5803F0AD1DFF82C81D8F8A0
:10120000008048EA0008DFF82091C9F8008009E072
:10121000DFF81481D8F8008028EA0008DFF8089188
:10122000C9F80080D1F8048008F40038B8F5003F10
:1012300010D1DFF8F48008F10408D8F8008048EAFB
:101240000008DFF8E49000E05AE009F10409C9F869
:1012500000800DE0DFF8D08008F10408D8F80080A5
:1012600028EA0008DFF8C09009F10409C9F80080F5
:10127000D1F8048008F48018B8F5801F0ED1DFF88B
:10128000A88008F10808D8F8008048EA0008DFF8CC
:10129000989009F10809C9F800800DE0DFF888800E
:1012A00008F10808D8F8008028EA0008DFF87890EC
:1012B00009F10809C9F80080D1F8048008F4001881
:1012C000B8F5001F0ED1DFF8608008F10C08D8F8DF
:1012D000008048EA0008DFF8509009F10C09C9F8CD
:1012E00000800DE0DFF8408008F10C08D8F800809D
:1012F00028EA0008DFF8309009F10C09C9F80080ED
:10130000521C102AFFF48EAEBDE8F88700001110C1
:101310000010024000080140000C01400010014094
:101320000014014008000140000401400246936897
:101330000B400BB1012000E000207047C2684A401A
:10134000C26070470AB1016101E00B04036170479C
:101350000148006870470000000000200248006853
:10136000401C0149086070470000002010B5084883
:10137000006840F0100006490860032000F0A6F85D
:10138000002000F007F800F019F8002010BD000060
:101390000020024070B50446074800684FF47A7197
:1013A000B0FBF1F5284600F036FD00222146501E24
:1013B00000F04EF8002070BD0400002008B500BF0A
:1013C0002148806940F001001F4988610846806912
:1013D00000F00100009000BF00BF032000F076F88D
:1013E000002211466FF00B0000F032F80022114687
:1013F0006FF00A0000F02CF8002211466FF009008F
:1014000000F026F800221146501F00F021F80022BB
:101410001146101F00F01CF800221146901E00F02B
:1014200017F800221146501E00F012F800BF0748BE
:10143000406820F0E060054948600846406840F098
:101440000070486000BF08BD00100240000001406D
:101450002DE9F05F80460D461646002700F0DEFFBE
:10146000074639462A46334601F00700C0F1070A0D
:10147000BAF1040F02D94FF0040A01E0C0F1070AE3
:10148000D14600F1040ABAF1070F02D24FF0000A68
:1014900001E0A0F1030AD4464FF0010A0AFA09FA62
:1014A000AAF1010A0AEA020A0AFA0CFA4FF0010B41
:1014B0000BFA0CFBABF1010B0BEA030B4AEA0B0432
:1014C0002146404600F0B2FFBDE8F09F00BF00F0AB
:1014D0000702064B19684FF6FF031940044B0B43F4
:1014E00043EA0221014B196000BF70470CED00E098
:1014F0000000FA052DE9F04385B006463DA30FCB69
:1015000001AC0FC43FA0006800904FF00008002518
:1015100000270024A146012E30D0022E58D0102ED4
:1015200061D139484468006800F0807000B301A8B8
:10153000C4F38341475C04F4803070B132484068A2
:10154000C0F340401DF8008004F4803040B12F48C3
:10155000B0FBF8F000FB07F502E02D4807FB00F5B3
:101560002948406800F48000B0F5800F01D1A946F9
:1015700003E068000321B0FBF1F935E02248046A7A
:1015800004F44070B0F5807F05D104F0020010B182
:101590004FF400491BE004F44070B0F5007F07D120
:1015A0001948406A00F0020010B149F640490EE0C7
:1015B00004F44070B0F5407F07D11348006800F490
:1015C000003010B14FF2244901E04FF000090BE068
:1015D00000F090F90C494968C1F38131491C490078
:1015E000B0FBF1F900E000BF00BF484605B0BDE820
:1015F000F083000002030405060708090A0B0C0D1E
:101600000E0F1010010200000010024000127A00BC
:1016100000093D00F8B5044600260025207800F0BA
:10162000010000286BD000274348C06900F08050BB
:1016300070B900BF4048C06940F080503E49C86161
:101640000846C06900F08050009000BF00BF01272D
:101650003A48006800F48070B0B93848006840F437
:10166000807036490860FFF773FE064606E0FFF714
:101670006FFE801B642801D90320F8BD2F48006845
:1016800000F480700028F2D02B48006A00F4407506
:101690002DB3A08800F44070A84220D02648006AEC
:1016A00020F4407501202649086000200860224887
:1016B000056205F0010090B1FFF74AFE064608E01A
:1016C000FFF746FE801B41F28831884201D9032092
:1016D000D3E71948006A00F002000028F0D016484D
:1016E000006A20F440706168084313490862012FC2
:1016F00004D10846C06920F08050C86100BF20783E
:1017000000F00200022807D10B48406820F4404056
:10171000A168084308494860207800F010001028AC
:1017200007D10548406820F48000E1680843024979
:1017300048600020A1E70000001002400070004057
:101740004004424270B504460D46002662480068D7
:1017500000F00700A8420ED25F48006820F00700A2
:1017600028435D4908600846006800F00700A84269
:1017700001D0012070BD207800F00200022807D1BE
:101780005648406820F0F000A1680843534948607B
:10179000207800F0010000285DD06068012806D1A3
:1017A0004E48006800F4003090B90120E2E760681C
:1017B000022806D14948006800F0007040B90120B5
:1017C000D8E74648006800F0020008B90120D1E7D8
:1017D0004248406820F00300616808433F49486080
:1017E000FFF7B6FD06466068012810D108E0FFF754
:1017F000AFFD801B41F28831884201D90320B9E74F
:101800003648406800F00C000428F0D123E06068FE
:10181000022810D108E0FFF79BFD801B41F28831C0
:10182000884201D90320A5E72C48406800F00C004D
:101830000828F0D10FE008E0FFF78AFD801B41F295
:101840008831884201D9032094E72448406800F099
:101850000C000028F0D12048006800F00700A842E2
:101860000ED91D48006820F0070028431A49086077
:101870000846006800F00700A84201D0012079E77F
:10188000207800F00400042807D11448406820F4B0
:10189000E060E168084311494860207800F00800E2
:1018A000082808D10D48406820F46050216940EABA
:1018B000C1000A49486000F02DF808494968C1F3A1
:1018C0000311074A515CC840064908600020FFF731
:1018D00061FD00204EE700000020024000100240A1
:1018E00074300008040000200148006870470000C0
:1018F0000400002000B5FFF7F7FF04494968C1F371
:10190000C221034A515CC84000BD000000100240E3
:1019100084300008F0B585B00FF2700C9CE8E01040
:1019200001A8A0E8E0101DA52D6800950021002465
:101930000022002300201A4D696801F00C05FDB15A
:10194000042D02D0082D1AD101E016481AE001AD8D
:10195000C1F38346AB5D01F480355DB1104D6D6818
:10196000C5F340451DF805400E4DB5FBF4F505FBEC
:1019700003F202E00C4D03FB05F2104602E000BF4B
:10198000084800BF00BF05B0F0BD00000203040519
:10199000060708090A0B0C0D0E0F101001020000BB
:1019A0000010024000127A0000093D00F8B504461C
:1019B0000025207800F00100002878D0F848406821
:1019C00000F00C0004280CD0F548406800F00C0032
:1019D000082811D1F248406800F48030B0F5803F0B
:1019E0000AD1EF48006800F4003000285FD060683A
:1019F00000285CD10120F8BD00BF6068B0F5803FD1
:101A000006D1E748006840F48030E549086028E0E6
:101A1000606858B9E248006820F48030E049086006
:101A20000846006820F4802008601AE06068B0F57D
:101A3000A02F0BD1DA48006840F48020D849086014
:101A40000846006840F4803008600AE0D448006826
:101A500020F48030D24908600846006820F48020D5
:101A6000086000BF606888B1FFF772FC054606E0B9
:101A7000FFF76EFC401B642801D90320BBE7C84870
:101A8000006800F400300028F2D010E0FFF760FC9E
:101A9000054606E0FFF75CFC401B642801D90320E3
:101AA000A9E7BF48006800F400300028F2D1207890
:101AB00000F00200022857D1B948406800F00C003D
:101AC00050B1B748406800F00C00082818D1B4485D
:101AD000406800F4803098B9B148006800F0020016
:101AE00020B12069012801D0012084E7AC480068BA
:101AF00020F0F800616940EAC100A949086033E0BC
:101B00002069E8B10120A7490860FFF721FC0546DC
:101B100006E0FFF71DFC401B022801D903206AE7FD
:101B20009F48006800F002000028F2D09C4800683E
:101B300020F0F800616940EAC1009949086013E0AB
:101B4000002098490860FFF703FC054606E0FFF710
:101B5000FFFB401B022801D903204CE79048006896
:101B600000F002000028F2D1207800F008000828D8
:101B70002DD1A069B8B101208B490860FFF7E8FBBF
:101B8000054606E0FFF7E4FB401B022801D90320CD
:101B900031E78348406A00F002000028F2D00120BB
:101BA00000F0A8FC13E000207F490860FFF7D0FB9D
:101BB000054606E0FFF7CCFB401B022801D90320B5
:101BC00019E77748406A00F002000028F2D1207837
:101BD00000F00400042873D100267148C06900F0A9
:101BE000805070B900BF6E48C06940F080506C49A9
:101BF000C8610846C06900F08050009000BF00BF77
:101C000001266A48006800F48070B0B9674800682F
:101C100040F4807065490860FFF79AFB054606E0CE
:101C2000FFF796FB401B642801D90320E3E65F48D9
:101C3000006800F480700028F2D000BFE06801283E
:101C400006D15748006A40F001005549086227E074
:101C5000E06858B95248006A20F001005049086213
:101C60000846006A20F00400086219E0E0680528D0
:101C70000BD14B48006A40F004004949086208460D
:101C8000006A40F0010008620AE04548006A20F05E
:101C90000100434908620846006A20F00400086217
:101CA00000BFE068A0B1FFF753FB054609E0FFF76E
:101CB0004FFB401B41F28831884202D903209AE64B
:101CC00022E03748006A00F002000028EFD012E05E
:101CD000FFF73EFB054608E0FFF73AFB401B41F2E9
:101CE0008831884201D9032085E62D48006A00F03A
:101CF00002000028F0D1012E05D12948C06920F04A
:101D000080502749C86100BFE069C8B324484068D3
:101D100000F00C00082860D0E069022848D10020BB
:101D200020490866FFF714FB054606E0FFF710FBA5
:101D3000401B022801D903205DE61948006800F025
:101D400000700028F2D1206AB0F5803F07D1144816
:101D5000406820F40030A168084311494860D4E984
:101D6000080108430E49496821F4741108430C49DD
:101D7000486001200B490866FFF7EAFA054607E0CC
:101D80002DE0FFF7E5FA401B022801D9032032E6D7
:101D90000348006800F000700028F2D01FE0000047
:101DA00000100240000042428004424200700040A5
:101DB00000200C490866FFF7CBFA054606E0FFF75E
:101DC000C7FA401B022801D9032014E60648006820
:101DD00000F000700028F2D101E001200BE60020A5
:101DE00009E600000000424200100240042808D129
:101DF0004FF0E021096941F004014FF0E022116148
:101E000007E04FF0E021096921F004014FF0E022E2
:101E100011617047704770B504462546681EB0F1E1
:101E2000807F01D301200FE0681E4FF0E021486160
:101E30000F214FF0FF3000F0F9FA00204FF0E021C1
:101E4000886107200861002070BD10B5FFF7E2FF30
:101E500010BD70477047704710B504462068006990
:101E6000C0F34000D8B12068C068C0F34000B0B1F2
:101E70006FF00200216808610120207720688069E6
:101E800000F0030018B12046FFF7E5FF05E020460B
:101E900000F0ADF8204600F0ABF800202077206875
:101EA0000069C0F38000D8B12068C068C0F380002A
:101EB000B0B16FF00400216808610220207720682B
:101EC000806900F4407018B12046FFF7C4FF05E0B8
:101ED000204600F08CF8204600F08AF80020207799
:101EE00020680069C0F3C000D8B12068C068C0F3A2
:101EF000C000B0B16FF008002168086104202077AD
:101F00002068C06900F0030018B12046FFF7A3FF66
:101F100005E0204600F06BF8204600F069F800204C
:101F2000207720680069C0F30010D8B12068C0682D
:101F3000C0F30010B0B16FF01000216808610820F4
:101F400020772068C06900F4407018B12046FFF780
:101F500082FF05E0204600F04AF8204600F048F8ED
:101F6000002020772068006900F0010058B1206847
:101F7000C06800F0010030B16FF001002168086115
:101F8000204600F036F820680069C0F3C01058B150
:101F90002068C068C0F3C01030B16FF080002168C5
:101FA00008612046FFF755FF20680069C0F38010E4
:101FB00058B12068C068C0F3801030B16FF04000A5
:101FC00021680861204600F015F820680069C0F318
:101FD000401058B12068C068C0F3401030B16FF0B5
:101FE0002000216808612046FFF734FF10BD7047CC
:101FF00070477047704700BFFEE710B500F0A2FAC7
:1020000000F01AFB012000F089FA012000F000FB2B
:102010000A20FEF7DDFC002000F0FAFA0A20FEF7A5
:10202000D7FC002000F07AFA0A20FEF7D1FC10BDA0
:1020300010B500F087FA00F0FFFA002000F06EFA09
:10204000002000F0E5FA0A20FEF7C2FC012000F0B3
:1020500065FA0A20FEF7BCFC012000F0D9FA0A203C
:10206000FEF7B6FC10BD10B5002000F057FA00F0E6
:10207000E3FA002000F0CCFA0A20FEF7A9FC0120C8
:1020800000F04CFA0A20FEF7A3FC002000F046FA0C
:1020900010BD10B500F056FA00F0CEFA012000F0A5
:1020A0003DFA012000F0B4FA0A20FEF782FC10BDD0
:1020B00010B5002000F032FA00F0BEFA012000F066
:1020C000A7FA0A20FEF784FC012000F027FA0A2074
:1020D000FEF77EFC002000F021FA10BD70B5054629
:1020E00000F06EFA002617E0002000F017FA322008
:1020F000FEF76EFC012000F011FA3220FEF768FCBA
:102100006006040E00F046FA08B1601CC4B232202A
:10211000FEF75EFC701CC6B2082EE5DB15B1FFF7BA
:10212000A2FF01E0FFF7C4FF204670BD70B5044672
:1021300000F082FA002000F0F1F9002515E0E00936
:1021400000F066FA6006040E3220FEF741FC012022
:1021500000F0E4F93220FEF73BFC002000F0DEF94D
:102160003220FEF735FC681CC5B2082DE7DB70BDD8
:1021700010B5002400F024FA0120FEF729FC01200C
:1021800000F0CCF90120FEF723FC07E0601CC4B28C
:10219000FA2C03DDFFF74CFF012010BD00F0FAF927
:1021A0000028F3D100F0BAF90020F6E70EB5254873
:1021B000254908608115244881600021C160012102
:1021C00041614FF46021C16100201F494860032133
:1021D0001D48016101218161FEF7D2FC20B14FF45D
:1021E000A8711AA000F0A4FC01200090019000202A
:1021F000029069461448FEF70FFC20B14FF4AD7110
:1022000012A000F095FC02200090019000200290A6
:1022100069460D48FEF700FC20B14FF4B1710BA0E8
:1022200000F086FC03200090019000200290694697
:102230000548FEF7F1FB20B14FF4B57103A000F0A3
:1022400077FC0EBD002401400C0000202E2E2F53E1
:1022500072632F6D61696E2E6300000000B585B05A
:1022600000BF6848806940F01000664988610846F0
:10227000806900F01000009000BF00BF00BF08465A
:10228000806940F0200088610846806900F02000E5
:10229000009000BF00BF00BF0846806940F0040006
:1022A00088610846806900F00400009000BF00BF0C
:1022B00000BF0846806940F00800886108468069D0
:1022C00000F00800009000BF00BF00224FF48041E2
:1022D0004D48FFF737F800224FF440514B48FFF7C5
:1022E00031F800224FF4C0414748FFF72BF8002295
:1022F0004FF441514548FFF725F800224FF4C04103
:102300004148FFF71FF8002201214048FFF71AF863
:1023100000224FF440513D48FFF714F80122D1024A
:102320003B48FFF70FF84FF4C040019001200290A6
:102330000220049001A93448FEF76AFE43F201002E
:102340000190012002900220049001A92F48FEF77D
:102350005FFE40F6024001900020029002200390B0
:1023600001A92A48FEF754FE4FF4006001900120B5
:1023700002900320049001A92548FEF749FE4FF47E
:10238000C0400190012002900220049001A91E4843
:10239000FEF73EFE4FF440500190012002900220D3
:1023A000049001A91948FEF733FE40200190012056
:1023B00002900320049001A91448FEF729FE4FF46F
:1023C00000500190002002900120039001A90E48C6
:1023D000FEF71EFE4FF48040019001200290022083
:1023E000049001A90848FEF713FE4FF440500190F5
:1023F000012002900320049001A90448FEF708FE82
:1024000005B000BD0010024000100140000C01406A
:102410000008014000BFFEE7704700000248006866
:10242000C0F30220704700000CED00E010B500285A
:1024300007DA0A07140E054A00F00F031B1FD454D5
:1024400003E00A07130E024A135410BD18ED00E012
:1024500000E400E000B585B000BF1048806940F09E
:1024600008000E4988610846806900F00800009065
:1024700000BF00BF00224FF400510948FEF762FF81
:102480004FF400500190012002900320049001A914
:102490000348FEF7BDFD05B000BD0000001002407E
:1024A000000C0140704700002DE9F04104460E4643
:1024B0000025A1682068FDF7BBFE07463146FDF701
:1024C00065FE20600A492068FDF7EAFE606000BFF3
:1024D00008E004F10800691C50F8211040F82510AC
:1024E000681CC5B21D2DF4DBE667BDE8F081000075
:1024F0000000F04108B508490968C9084FF47A722C
:10250000B1FBF2F14143009100BF00BF00994A1EA8
:1025100000920029F9D108BD0400002010B504463E
:1025200034B900224FF480410548FEF70BFF06E066
:10253000012C04D1012291030148FEF703FF10BDD5
:102540000010014000B585B000BF1048806940F020
:1025500010000E4988610846806900F01000009064
:1025600000BF00BF00224FF480410948FEF7EAFE99
:102570004FF480400190012002900320049001A9B3
:102580000348FEF745FD05B000BD00000010024005
:102590000010014010B54FF400510848FEF7C6FE88
:1025A00008B9002407E04FF400510448FEF7BEFECE
:1025B000012800D10124204610BD00000010014078
:1025C00000B585B000BF1048806940F010000E498A
:1025D00088610846806900F01000009000BF00BFCD
:1025E00000224FF400510948FEF7ACFE4FF40050B2
:1025F0000190002002900120039001A90348FEF7FA
:1026000007FD05B000BD00000010024000100140B1
:1026100010B5044634B900224FF400510548FEF7C6
:1026200091FE06E0012C04D1012251030148FEF77E
:1026300089FE10BD0010014000B585B000BF1048F4
:10264000806940F010000E4988610846806900F0FA
:102650001000009000BF00BF00224FF40051094855
:10266000FEF770FE4FF4005001900120029003200D
:10267000049001A90348FEF7CBFC05B000BD0000A3
:1026800000100240001001402DE9F04F87B04FF0DC
:10269000000AFFF7B2FC3220FEF79AF98020FFF71C
:1026A00045FDFFF765FD83463220FEF791F9F520E1
:1026B000FFF73CFDFFF75CFD834600BF0520FEF7FA
:1026C00078F9FFF79AFC0520FEF773F98120FFF7F0
:1026D0002DFD0AF101001FFA80FAFFF749FD83463C
:1026E000BAF1320F00D102E0BBF1000FE6D100BF1A
:1026F0003220FEF76DF90120FFF7F0FC054632208D
:10270000FEF766F90120FFF7E9FC064646EA0529CF
:1027100029F003094846FDF789FF0190FDF78BFF7B
:10272000094A0A4BCDE90201FDF79FFE0022084B42
:10273000CDE90401FDF793FE0746FDF7BFFF044610
:10274000204607B0BDE8F08F7644CF7701405F3F69
:10275000000018402DE9F04F85B000200490039050
:1027600002900190834600F077F80520FEF721F9EA
:10277000FFF743FC3220FEF72BF98020FFF7D6FC51
:10278000FFF7F6FC03903220FEF722F9F320FFF763
:10279000CDFCFFF7EDFC039000BF0520FEF709F923
:1027A000FFF72BFC0520FEF704F98120FFF7BEFCA4
:1027B0000BF101001FFA80FBFFF7DAFC0390BBF17D
:1027C000320F00D102E003980028E6D100BF642058
:1027D000FEF7FEF80120FFF781FC02900120FFF7D1
:1027E0007DFC01900020FFF779FC3220FEF7F0F825
:1027F000FFF71EFCDDE9010140EA012A2AF0030A85
:102800005046FDF713FF0090FDF715FF8046084A7C
:10281000084BFDF72AFE0646074A084BFDF71FFE48
:102820000446FDF74BFF0490049805B0BDE8F08F17
:10283000619FC6DE07F7653FCDCCCCCCCC6C474062
:1028400010B5FFF726FCFFF7D8FB00F005F80446AB
:10285000FFF7EEFB204610BD10B500248020FFF7E7
:1028600065FCFFF785FC0446FE20FFF75FFCFFF7E1
:102870007FFC0446FFF7DCFB204610BD70470000DC
:102880002DE9FE4F04464FF0000900BF14E02F4829
:10289000FEF706FB6420FEF79BF8C8212B48FEF7E5
:1028A00047FA28B92948FEF767F901A921F8190064
:1028B00009F1010000F0FF09B9F1030FE7DBBDF8F2
:1028C0000400FDF7B3FE0090FDF7B5FE82464FF021
:1028D00066321F4BFDF7C9FD074600221D4BFDF771
:1028E00036FE0546FDF7EAFE2060BDF80600FDF75E
:1028F0009DFE0090FDF79FFE07464FF06632144B99
:10290000FDF7B3FD05460022124BFDF720FE82467F
:10291000FDF7D4FE6060BDF80800FDF787FE00906B
:10292000FDF789FE07464FF06632094BFDF79DFD26
:1029300005460022074BFDF70AFE8246FDF7BEFE64
:10294000A0600248FEF744FBBDE8FE8F0C000020AB
:1029500066660A400000B04010B50122110302482B
:10296000FEF7F0FC10BD0000000C014010B5012284
:1029700051030248FEF7E6FC10BD0000000C0140C8
:1029800010B5FEF7EBFCFFF760FA10BD10B594B080
:1029900001200A9000040B9000200C9001200E9062
:1029A00002201190C10312914FF4E01113910AA873
:1029B000FEF7FCFF20B14FF48D711CA000F0B8F8B9
:1029C0000F20059002200690002007904FF48060B1
:1029D000089000200990022105A8FEF7B3FE20B15F
:1029E0004FF4947111A000F0A3F80220019080032D
:1029F000039001A8FEF70EFE20B140F22F110BA0AC
:102A000000F096F8FEF770FF4FF47A71B0FBF1F426
:102A10002046FFF700FA0420FFF7E8F900221146EC
:102A2000501EFEF715FD14B010BD00002E2E2F53C2
:102A300072632F6D61696E2E63000000114800689B
:102A400040F001000F490860084640680E49084000
:102A50000C494860084600680C490840094908606C
:102A60000846006820F4802008600846406820F48A
:102A7000FE0048604FF41F008860C80304490860E6
:102A800070470000001002400000FFF8FFFFF6FE54
:102A900008ED00E010B50248FFF7DEF910BD0000B8
:102AA0003C00002000BFFEE72DE9F04104460F4640
:102AB00015460026A520607217B9AA20A0720CE066
:102AC0000020A07200224FF440511848FEF73AFC53
:102AD000012240211548FEF735FC6220E072E87BB8
:102AE0002073A87B6073687BA073287BE073E87C0D
:102AF0002074A87C6074687CA074287CE07400203A
:102B00002075092605E0207DA15D48402075701CD8
:102B1000C6B2142EF7DB1521204600F066FA01211B
:102B20000248FEF70BFCBDE8F0810000000C0140FC
:102B300000BFFEE702E008C8121F08C1002AFAD150
:102B400070477047002001E001C1121F002AFBD12D
:102B50007047000010B504460420FFF747F901480C
:102B6000047010BD08000020E8B0802140A8FDF7E7
:102B700002FB802120A8FDF7FEFA80216846FDF7C0
:102B8000FAFA4FF000091822904962A8FDF7DAFA24
:102B9000002400250026A246DFF834B25846619092
:102BA0008C48609000BFFEF7E1FB4820FFF7D2FFA2
:102BB000FFF7ECFEFFF752FBFFF7F8FA4FF4FA606D
:102BC000FDF7F7FE1521844800F034F9FFF738FED1
:102BD00000BF05E04FF47A70FDF7EBFE601C84B295
:102BE000B42CF7DB002404E06420FDF7E2FE601C57
:102BF00084B2B4F5C47FF7DBFFF7ACFD7749C8605A
:102C0000FFF742FD754908610846FFF739FE734931
:102C100008687349FDF712FB4090704800684190C6
:102C20006E4948686E49FDF709FB20906B48406883
:102C300021906A4988686A49FDF700FB009067485F
:102C400080680190002410E06448016842A840F8C0
:102C500024106248416822A840F824105F48816827
:102C600002A840F82410601C84B21E2CECDBACE0FF
:102C70005A498868FDF7DFFC07465A4A5A4BFDF768
:102C800005FD09D255498868FDF7D5FC0746574A26
:102C9000574BFDF7E3FC03D301215648FEF74EFBEB
:102CA00002215448FEF742FB012806D1DFF848B163
:102CB000524860904FF000091BE04FF480614D488E
:102CC000FEF734FB012804D1DFF834B14D486090A1
:102CD0000FE04FF400614748FEF728FB012804D1BC
:102CE000DFF8ECB03B48609003E0DFF814B14548F2
:102CF00060903A48FFF7C4FD3848016840A8FFF7E4
:102D0000D3FB3648416820A8FFF7CEFB33488168E3
:102D10006846FFF7C9FB59464198FDF78FFA074609
:102D20002E4801683846FDF7E5FC16D361992198D5
:102D3000FDF784FA0746294841683846FDF7DAFC72
:102D40000BD360990198FDF779FA0746234881680B
:102D50003846FDF7D9FC00D38DB9204A314662A828
:102D6000FFF7A2FE1DB109F1010000F0FF09B9F162
:102D7000030F04DD05264FF000094FF0320A6420EE
:102D8000FDF717FE4DB94FF49675FFF7E3FC1349B5
:102D9000C860FFF779FC11490861681E85B2BAF175
:102DA000010F04DDAAF1010000F0FF0A05E0002296
:102DB0004FF441510F48FEF7C5FA002E01DD701E99
:102DC000C6B201210B48FEF7B9FA51E7B830000846
:102DD0000AD7833F6666663F8C3000087C0000207F
:102DE0000000F0419A9999999999C93FCDCCCCCCE2
:102DF000CCCCFC3F000C014000007A446F12833AB7
:102E0000CDCC8C3F5F70893010B580212F2000F031
:102E1000B1F8CA21352000F0ADF8EB21362000F0E2
:102E2000A9F83721084600F0A5F88221382000F0E3
:102E3000A1F810BD70B505460E4600F04FF800F041
:102E400079F80520FDF7C4FD00F042F80520FDF7F4
:102E5000B0FD00F037F80520FDF7ABFDFFF7D4FF1C
:102E60000520FDF7A6FD00F01BF8002409E035F869
:102E70001410204600F0EAF83220FDF7A9FD601C8E
:102E8000C4B2B442F3DB0520FDF793FD00F0A7F8D0
:102E90000520FDF78EFDFDF781FDFFF7DBFA70BD24
:102EA00010B51021122000F065F80021122000F06A
:102EB00061F80721242000F05DF820211D2000F09A
:102EC00059F810BD10B57821022000F053F810BD5C
:102ED00010B501213D2000F04DF810BD00B585B0C2
:102EE00000BF1248806940F0080010498861084618
:102EF000806900F00800009000BF00BF00224FF47E
:102F000040510B48FEF71EFA4FF44050019001204B
:102F100002900320049001A90548FEF779F8FFF715
:102F200025FDFFF797FA05B000BD00000010024034
:102F3000000C014010B5FFF70FFDFFF78BFAFDF70E
:102F40002DFD20240BE0FFF707FDC820FDF740FD15
:102F5000FDF71AFDC820FDF73BFD601EC4B2002C32
:102F6000F1D1FFF7F9FCFDF719FD00218D2000F0EC
:102F700001F810BD70B504460D4644F0800404F01D
:102F8000BF04204600F004F8284600F001F870BDA8
:102F900070B50446FFF7E0FCFFF75CFAFDF7FEFCB6
:102FA000082515E0FFF7D8FC04F0800010B1FFF70A
:102FB000DDFC01E0FDF7F2FCC820FDF709FDFDF79F
:102FC000E3FCC820FDF704FD6006040E681EC5B2D0
:102FD000002DE7D1FFF7C0FCFDF7E0FC70BD10B598
:102FE00002210D20FFF7C6FF10BD2DE9F041064676
:102FF0000F46FFF79FFFFFF7F2FFFDF7CFFC00241E
:1030000017E0002511E0305DC5F107020121914074
:10301000084010B1FFF7AAFC01E0FDF7BFFC40F249
:10302000A110FDF7D5FC681CC5B2082DEBDB601CB8
:10303000C4B2BC42E5DBFDF7B1FC0520FDF7B9FCED
:10304000FFF778FFFFF744FFBDE8F08170B5054654
:103050000C4629461820FFF78DFFE1B21920FFF733
:1030600089FF21121A20FFF785FF01212520FFF794
:1030700081FF70BD00000000000000000102030499
:103080000607080900000000010203047F00005049
:1030900000000000000000F00000CECB0842B000AD
:1030A0000164810000800000FFFF2000F05FD6A2D5
:1030B000130E190000000000AAAAAAAAAAAAAA2D03
:1030C000D4A5AA00000000000000000000000000DD
:1030D000F0300008000000200C000000342B000835
:1030E000FC3000080C00002084040000442B000881
:0C30F0000000000000A24A0400000000E4
:04000005080000ED02
:00000001FF
