:020000040800F2
:10000000A806002001010008812E0008832B0008AB
:10001000452E0008BF0400089D36000800000000BF
:10002000000000000000000000000000212F000878
:10003000A907000800000000DD2E0008752F000849
:100040001B0100081B0100081B0100081B01000820
:100050001B0100081B0100081B0100081B01000810
:10006000090800081B0100081B0100081B0100080B
:100070001B0100081B0100081B0100081B010008F0
:100080006D0700081B0100081B0100081B01000888
:100090008D3600081B0100081B0100081B01000829
:1000A0001B0100081B0100081B0100081B010008C0
:1000B0001B010008213200081B0100081B01000879
:1000C0001B0100081B0100081B0100081B010008A0
:1000D0001B0100081B010008353600081B01000841
:1000E0001B0100081B0100081B010008DFF80CD0F1
:1000F00000F0C4F900480047DD370008A8060020DA
:100100000648804706480047FEE7FEE7FEE7FEE7B1
:10011000FEE7FEE7FEE7FEE7FEE7FEE71530000834
:10012000ED000008202A04DB203A21FA02F0002129
:10013000704721FA02F3D040C2F1200291400843F7
:1001400019467047F0B480EA0102D40F4200B2EBC6
:10015000410F02D20246084611464A0042D0C30D62
:10016000DDB2C1F3C752AD1A202D35DAC1F3160145
:1001700041F4000204B15242C5F1200602FA06F130
:100180002A411044B3EBD05F23D0C4B1012DA0EBC2
:10019000C35009DCF0BC4FF0004202EAC352DBB2AC
:1001A00000F5000000F0DEB8400000F1807000EBC8
:1001B000C350A0F1807040EAD170490009E04908BD
:1001C00041EAC071A0EBC35000F50000400800EB0D
:1001D000C350F0BC00F0BDB86142012202EB410106
:1001E000001BF6E7F0BC704781F00041AAE780F001
:1001F0000040A7E72DE9F04D81EA030404F0004B2D
:1002000021F0004514464FF0000A23F0004150EA67
:10021000050220D054EA01021DD0C5F30A57024658
:10022000C5F31303C1F31300C1F30A5640F480155C
:1002300043F48013A7EB0608101BD64608F2FD38DE
:1002400073EB050002D308F1010801E092185B414D
:10025000B8F1000F03DA00200146BDE8F08D002060
:100260004FF48011064684460EE0171B73EB05071A
:1002700005D3121B63EB050306434CEA010C490846
:100280004FEA300092185B4150EA0107EDD152EA83
:10029000030012D082EA040083EA0501084305D076
:1002A000101BAB4106D20122002306E000224FF0D2
:1002B000004302E06FF0010253101AEB06004CEB12
:1002C000085110EB0A0041EB0B01BDE8F04D00F0C6
:1002D00077B820F00040C10DC0F3160040F40000D4
:1002E0007F2901DA00207047962903DCC1F19601CD
:1002F000C8407047963988407047C1F30A5210B51C
:10030000C1F3130140F2FF3341F480119A4201DA44
:10031000002010BD40F233439A42A2F2334203DC84
:100320005242FFF7FFFE10BD904010BD00F00042AA
:1003300030F000400AD0C10D01F56071C0F3160025
:1003400042EA0151C20840071143704700200146AC
:1003500070470029A8BF7047401C490008BF20F023
:100360000100704710B4B0FA80FC00FA0CF050EABB
:10037000010404BF10BC704749B1CCF1200421FA3C
:1003800004F411FA0CF118BF012121430843A3EB37
:100390000C01CB1D4FEA00614FEA102042BF002044
:1003A00010BC704700EBC35010440029A4BF10BC20
:1003B0007047401C490008BF20F0010010BC704786
:1003C00010B5141E73F1000408DA401C41F100015D
:1003D00092185B411A4301D120F0010010BD2DE9B4
:1003E000F04D92469B4611B1B1FA81F202E0B0FAAB
:1003F00080F22032904600F053F804460F4640EA5F
:100400000A0041EA0B0153465A46084313D01146ED
:1004100053EA010019D0C8F140025046FFF782FEAE
:1004200005460E4650465946424600F039F8084304
:1004300005D0012004E020463946BDE8F08D0020BB
:10044000054346EAE0762C4337430A986305E40AFD
:10045000A0EB08000022FD0A44EA47540A3002D506
:1004600000200146E9E7010510196941DDE9084569
:1004700000196941BDE8F04DA2E70000064C074DA8
:1004800006E0E06840F0010394E807009847103464
:10049000AC42F6D3FFF72EFE90400008B0400008B3
:1004A000202A04DB203A00FA02F100207047914034
:1004B000C2F1200320FA03F319439040704700BFB4
:1004C000FEE72DE9F04104460D46002700260DB950
:1004D000666B00E0A66B206800F5D87000EB051095
:1004E000006800F00400B060B06858B9206800F5FA
:1004F000D87000EB0510006840F2FF7101EA50501F
:1005000030600AE0206800F5D87000EB0510006844
:100510006FF0604101EAD0007060206800F5D8708B
:1005200000EB0510006800F00200F060206800F5A4
:10053000D87000EB0510406800F00F0030613562A4
:10054000206800F5D87000EB05104068C0F3072064
:10055000F061206800F5D87000EB051080683075F8
:10056000206800F5D87000EB05108068010A7175ED
:10057000206800F5D87000EB05108068010CB1759B
:10058000206800F5D87000EB05108068000EF0754B
:10059000206800F5D87000EB0510C0683076206840
:1005A00000F5D87000EB0510C068010A717620686C
:1005B00000F5D87000EB0510C068010CB17620681A
:1005C00000F5D87000EB0510C068000EF0764DB94C
:1005D00020202168C8602068406920F00A00216856
:1005E000486108E02020216808612068406920F007
:1005F00050002168486194F83C70222F01D0322FBE
:1006000005D12068406920F40F4021684861CDB9C8
:1006100094F83C00422804D0622806D072280CD1FD
:1006200007E0122084F83C000BE0322084F83C0004
:1006300007E0522084F83C0003E0012084F83C00ED
:1006400000BF19E094F83C00522804D0622806D07C
:1006500072280CD107E0122084F83C000BE0222025
:1006600084F83C0007E0422084F83C0003E00120CD
:1006700084F83C0000BF00BF204600F0EFFC0020E3
:10068000BDE8F081094A0A4B1A630A4A5A630822F4
:100690001B6B1A610422064B1B6B9A600022044BF1
:1006A0001B6BDA60024A126B516070478C020020AB
:1006B000900000206802002010B5044620684069C0
:1006C00020F001002168486194F83C00122805D10F
:1006D0002068406920F40F402168486194F83C008C
:1006E000422804D0522806D072280CD107E02220DC
:1006F00084F83C000BE0322084F83C0007E06220E4
:1007000084F83C0003E0012084F83C0000BF00BFF7
:10071000204600F00BFE002010BD000010B50022A6
:100720004FF40041014801F003FA10BD000C0140F4
:1007300010B500224FF48051014801F0F9F910BDC5
:10074000000C014010B500224FF40051014801F0A7
:10075000EFF910BD000C014010B500224FF48041AC
:10076000014801F0E5F910BD000C014010B5024848
:1007700000F0FAFD10BD00005401002030B590F8E3
:1007800040500124AC40C56B6C60046863604468F1
:10079000102C04D10468A2600468E16003E00468DE
:1007A000A1600468E26030BD7047000010B50446E7
:1007B000042001F025FE0148047010BD8E000020C9
:1007C00070B5034600224FF0E02675690D4E36786D
:1007D00003FB06F44FF0E026B16910E04FF0E0268D
:1007E000B06988420BD0884202D20E1A324402E02D
:1007F0002E1A0E4432440146A24200D300E0EDE737
:1008000000BF70BD8E00002010B5042000F0E8FF8E
:1008100001200149087010BD380000200021074A5E
:10082000D1610749096941F00401054A1161114686
:10083000096941F040011161704700004802002041
:10084000002002400021074AD1610749096941F0AF
:100850000201054A116111464861096941F04001F0
:100860001161704748020020002002400022054B21
:10087000DA61054A126942F00102034B1A610180F4
:1008800070470000480200200020024000201E495E
:10089000C96801F0100139B11C49C96941F0020170
:1008A0001A4AD16140F010001749C96801F00401EB
:1008B00039B11649C96941F00101144AD16140F0CA
:1008C00004001149C96901F0010169B10F49C96901
:1008D00041F004010D4AD16100BF0B49C96921F003
:1008E0000101094AD16100BF00BF40F201118842F5
:1008F00006D10549C96921F00101034AD16101E02E
:100900000149C86000BF7047002002404802002033
:1009100070B5044601F012F9054609E0601C38B1D3
:1009200024B101F00BF9401BA04201D9032070BD96
:100930001248C06800F001000028EFD10F48C068DD
:1009400000F0200020B100BF20200C49C86000BF8B
:100950000A48C06800F0100048B90848C06900F0B3
:10096000010020B90548C06800F0040018B1FFF785
:100970008DFF0120DBE70020D9E7000000200240C6
:1009800030B585B004460D460020009001900394D8
:10099000281B401C800A049000BF694601A800F093
:1009A0004BFE0028F9D105B030BD014608687047FC
:1009B0002DE9F04105460E461746002400F0F6FEEC
:1009C00005F2FF312846FFF7DBFF00BF0BE056F8CA
:1009D00024C0042000FB045162460023022000F0E2
:1009E0008DFE601CC4B2BC42F1DB00F07DFEBDE8B0
:1009F000F08130B5024600230C7D012000FA04F39B
:100A00001068D0F8000220F47C5001254C6A45EAB9
:100A1000042420431468C4F800021068D0F81C02B3
:100A200098431468C4F81C02C869E8B91068D0F883
:100A30000C0298431468C4F80C02888880B28C8930
:100A400040EA0444106800F510704D6940F83540E4
:100A5000088880B20C8940EA0444106800F51070E0
:100A60004D6900EBC5004460C86901281DD11068BC
:100A7000D0F80C0218431468C4F80C02888880B2BD
:100A80000C8840EA0444106800F510704D6940F885
:100A90003540888980B20C8940EA0444106800F52A
:100AA00010704D6900EBC5004460886938B9106862
:100AB000D0F8040298431468C4F8040206E01068F1
:100AC000D0F8040218431468C4F80402086938B95D
:100AD0001068D0F8140298431468C4F8140206E0B1
:100AE0001068D0F8140218431468C4F81402086A95
:100AF000012806D11068D0F81C0218431468C4F805
:100B00001C021068D0F8000220F001001468C4F83C
:100B10000002002030BD70472DE9F0410446002559
:100B200000260027A8462068C068C0F3001520688A
:100B30004069C0F3C0062DB126B148F400781020FA
:100B40002168C86020680069C0F30015206840690A
:100B5000C0F380162DB126B148F4806810202168BA
:100B600008612068406900F0010000283BD020683F
:100B700080687A490840884201D1012000E00020C5
:100B800005462068806876490840884201D10120E6
:100B900000E00020064620688068724908408842CC
:100BA00001D1012000E0002007460DB906B9D7B1F8
:100BB00020688068C0F3400520688068C0F3402644
:100BC0002068806800F001070DB906B91FB1204602
:100BD000FFF772FD01E048F4006820688068624910
:100BE0000843216888602068C06800F00305206819
:100BF0004069C0F3400625B11EB100212046FFF731
:100C000060FC2068006900F0030520684069C0F3BB
:100C1000001625B11EB101212046FFF752FC206CC1
:100C200040EA080020642068806900F0010520681F
:100C30004069C0F3002620684069C0F3C0372DB179
:100C400026B11FB1206C40F001002064206880694B
:100C5000C0F3400520684069C0F340262068406921
:100C6000C0F3C0372DB126B11FB1206C40F0020097
:100C7000206420688069C0F3800520684069C0F363
:100C8000802620684069C0F3C0372DB126B11FB15E
:100C9000206C40F0040020642068806900F070003F
:100CA00008B9012000E00020054620684069C0F333
:100CB000C02620684069C0F3C03795BB8EB387B3A8
:100CC0002068806900F07005402D1BD006DC102DD7
:100CD00009D0202D0CD0302D24D10EE0502D16D06F
:100CE000602D1FD118E0206C40F0080020641AE04D
:100CF000206C40F01000206415E0206C40F02000D3
:100D0000206410E0206C40F0400020640BE0206C78
:100D100040F08000206406E0206C40F48070206485
:100D200001E007E000BF00BF2068806920F070008C
:100D300021688861206C78B1042021684860012016
:100D400084F83C002068406948F65B71884321685C
:100D500048612046FFF7DFFEBDE8F0810100000496
:100D60000001000800000110090501002DE9F04113
:100D7000044600270026002514B90120BDE8F081B3
:100D800094F83C0028B9002084F83D00204600F08B
:100D9000A5F8022084F83C002068006820F00200DA
:100DA000216808602068006840F001002168086040
:100DB00000F0C4FE06460EE000F0C0FE801B0A28CC
:100DC00009D9032084F83C0000BF002084F83D00CE
:100DD00000BF0320D2E72068406800F0010000282F
:100DE000EAD02068406800F00100002867D0A069C0
:100DF000012802D145F0800501E025F08005E06979
:100E0000012802D145F0400501E025F04005206AA7
:100E1000012802D145F0200501E025F02005606A97
:100E2000012802D145F0100501E025F01005A06A67
:100E3000012802D145F0080501E025F00805E06A27
:100E4000012802D145F0040501E025F004052068E1
:100E5000006820F0FC00284321680860D4E9020102
:100E6000084321690843616908436168491E0843D2
:100E70002168C8612068006820F0010021680860CE
:100E800000F05CFE06460EE000F058FE801B0A28CB
:100E900009D9032084F83C0000BF002084F83D00FD
:100EA00000BF03206AE72068406800F001000028C6
:100EB000EAD12068406800F0010000B90127012F45
:100EC00006D100202064012084F83C00002055E772
:100ED000042084F83C00012050E7000010B586B0E3
:100EE000044618492068884229D100BF1648C069C5
:100EF00040F000701449C8610846C06900F00070F5
:100F0000019000BF00BFC81402900020039004901D
:100F100002A90E4800F072FC4FF4805002900220AB
:100F200003900320059002A9084800F067FC002206
:100F30000421142000F0AFFE142000F09FFE06B044
:100F400010BD000000640040001002400008014095
:100F5000024689B992F83C0022280BD092F83C0056
:100F6000422807D092F83C00622803D092F83C0057
:100F7000722801D102207047012911D192F83C005A
:100F800032280BD092F83C00522807D092F83C004F
:100F9000622803D092F83C00722801D10220EAE7CF
:100FA00000BF92F83D00012801D10220E3E70120B3
:100FB00082F83D0000BFC9B992F83C00122804D065
:100FC000322806D052280CD107E0422082F83C009B
:100FD0000BE0622082F83C0007E0722082F83C00BF
:100FE00003E0222082F83C0000BF19E092F83C00A8
:100FF000122804D0222806D042280CD107E0522023
:1010000082F83C000BE0622082F83C0007E072208E
:1010100082F83C0003E0322082F83C0000BF00BFB1
:10102000002010641068406948F601731843136883
:10103000586100BF002082F83D0000BF31B9106840
:10104000406940F00A001368586105E01068406983
:1010500040F050001368586100208CE710B504463A
:1010600004492068884203D100210348FFF770FF3C
:1010700010BD000000640040900000202DE9F04108
:1010800004460E46042500272068806800F0806032
:10109000B0F1806F0DD02068806800F00060B0F182
:1010A000006F06D02068806800F08050B0F1805F4B
:1010B0007ED100BF94F83D00012802D10220BDE896
:1010C000F081012084F83D0000BF94F83C00222804
:1010D00004D0322806D062280CD107E0422084F8E0
:1010E0003C000BE0522084F83C0007E0722084F8BA
:1010F0003C0003E0122084F83C0000BF00BF2068E1
:10110000806800F0806008B1002507E020688068F2
:1011100000F0006008B1012500E00225206800F51C
:10112000C07000EB0510006800F00101206800F5B8
:10113000C07000EB05100160206B806898B92068D2
:1011400000F5C07000EB05100068216BC968226BC8
:10115000128841EA42510843216801F5C07101EB50
:101160000511086015E0206800F5C07000EB05105F
:101170000068216B8968226B526841EAC201226BC8
:10118000D26811430143206800F5C07000EB0510E0
:101190000160206B007C00F00F00216B086120686B
:1011A00000F5C07000EB0510406820F00F0100E072
:1011B000B1E0206800F5C07000EB051041602068C8
:1011C00000F5C07000EB05104068216B0969084309
:1011D000216801F5C07101EB05114860206BC07DED
:1011E0000106206B807D41EA0041206B407D41EA91
:1011F0000020216B097D0843216801F5C07101EBD6
:1012000005118860206BC07E0106206B807E41EA5C
:101210000041206B407E41EA0021206B007E0143AB
:10122000206800F5C07000EB0510C160206800F573
:10123000C07000EB0510006840F00101206800F567
:10124000C07000EB0510016000F078FC074620E05C
:10125000701CF0B126B100F071FCC01BB04218D96F
:10126000032084F83C001DB980202168886009E0D3
:10127000012D03D1E8032168886003E04FF40000EA
:101280002168886000BF002084F83D0000BF032073
:1012900015E74DB92068806821490840884201D18E
:1012A000012016E0002014E0012D09D1206880689B
:1012B0001C490840884201D101200AE0002008E0D2
:1012C0002068806818490840884201D1012000E068
:1012D00000200028BCD094F83C00422804D05228BA
:1012E00006D072280CD107E0222084F83C000BE0E5
:1012F000322084F83C0007E0622084F83C0003E0E0
:10130000012084F83C0000BF00BF00BF002084F82B
:101310003D0000BFD3E6042084F83C000120CEE667
:1013200001000004000100080000011070470146A0
:1013300000200A68126822F00E020B681A600A6820
:10134000126822F001020B681A6091F84030012205
:101350009A40CB6B5A60012281F8212000BF002205
:1013600081F8202000BF704770B50446E06B056827
:101370002068066894F8401004208840284000281F
:1013800046D006F00400002842D02068006800F033
:10139000200028B92068006820F004002168086057
:1013A00057492068884201D1042027E0544914316C
:1013B0002068884201D1402020E05149283120682E
:1013C000884201D1001519E04D493C31206888421E
:1013D00002D14FF4804011E04949503120688842E1
:1013E00002D14FF4802009E04549643120688842E9
:1013F00002D14FF4800001E04FF08060404908398D
:101400004860E06A00287AD02046E16A884776E0A2
:1014100094F84010022088402840A0B306F0020053
:1014200088B32068006800F0200040B92068006898
:1014300020F00A0021680860012084F8210030496A
:101440002068884201D1022028E02D49143120680B
:10145000884201D1202021E0294928312068884292
:1014600001D140151AE026493C312068884202D15A
:101470004FF4005012E0224950312068884203D1D5
:101480004FF400300AE017E01D49643120688842BB
:1014900002D14FF4001001E04FF0007018490839F4
:1014A000486000BF002084F8200000BFA06A30B36D
:1014B0002046A16A884722E094F84010082088401E
:1014C0002840E0B106F00800C8B12068006820F0AC
:1014D0000E002168086094F8401001208840E16BFC
:1014E00048600120A06384F8210000BF002084F838
:1014F000200000BF206B10B12046216B884770BDD3
:10150000080002400146002209B901207047184B2B
:101510000868C01A1423B0FBF3F080000864144874
:101520000838C863022081F821000868026843F681
:10153000F0708243D1E901031843CB6818430B696B
:1015400018434B6918438B691843CB69184302430E
:101550000868026000208862C86208634863886384
:10156000012081F82100002081F8200000BFCDE794
:10157000080002402DE9F04104460D4616461F467C
:101580004FF0000800BF94F82000012802D102208B
:10159000BDE8F081012084F8200000BF94F821000C
:1015A00001282CD1022084F821000020A0632068AB
:1015B000006820F00100216808603B463246294659
:1015C0002046FFF7DBF8E06A30B12068006840F0A1
:1015D0000E00216808600BE02068006820F004001D
:1015E000216808602068006840F00A0021680860EF
:1015F0002068006840F001002168086006E000BF34
:10160000002084F8200000BF4FF002084046BFE7EA
:1016100070B5044600F092FA06462546681C10B1E3
:1016200004480078054400BF00F088FA801BA842F7
:10163000FAD370BD440000202DE9F04104460E4667
:101640000127002500BF2648007E012802D1022084
:10165000BDE8F08101202249087600BF20680228F9
:1016600013D14CF25030FFF753F990BB0120FFF734
:10167000D5F84CF25030FFF74BF90746194800698E
:1016800020F004001749086123E04CF25030FFF7C6
:101690003FF9F0B94FF0FF303060A56812E02846FE
:1016A000FFF7D0F84CF25030FFF732F907460D48FB
:1016B000006920F002000B4908610FB1356007E0B6
:1016C00005F58065D4E9021001EB8020A842E6D838
:1016D00000BF00BF00200249087600BF3846B7E7C8
:1016E00048020020002002400348006940F08000CA
:1016F0000149086100207047002002402DE9FE4F9B
:1017000005468B4617469846012600240020029085
:1017100000BF2448007E012802D10220BDE8FE8FD0
:1017200001202049087600BF4CF25030FFF7F0F856
:10173000064686BB012D02D10120029006E0022D53
:1017400002D10220029001E00420029000241EE059
:101750002201B946C24648465146FEF7E3FC80B234
:101760000190022000FB04B000900199FFF77EF881
:101770004CF25030FFF7CCF806460B48006920F0D9
:1017800001000949086106B104E0601CC4B2029876
:101790008442DDDB00BF00BF00200249087600BFA5
:1017A0003046BBE7480200200020024000200849E4
:1017B000096901F0800151B10649054A51600649A5
:1017C00051601146096901F0800101B101207047A3
:1017D0000020024023016745AB89EFCD7047000030
:1017E00010B5044604480068204020B10248046057
:1017F0002046FFF7F3FF10BD140401402DE9F84720
:1018000003460024002000258446002700226EE1C4
:101810004FF0010808FA02F4D1F8008008EA040049
:10182000A0427DD1DFF8D0A2D1F80480A8EB0A094C
:10183000D0453AD014DCB8F1030F50D009DCB8F130
:10184000000F31D0B8F1010F1CD0B8F1020F49D10F
:1018500020E0B8F1110F18D0B8F1120F42D11EE0FC
:10186000B9F5881F25D006DCB9F5803F20D0B9F541
:10187000801F37D11AE0B9F5001F18D0B9F5041F41
:1018800030D117E0D1F80CC02DE0D1F80C8008F170
:10189000040C28E0D1F80C8008F1080C23E0D1F802
:1018A0000C8008F10C0C1EE000BF00BF00BF00BFA1
:1018B00000BF00BFD1F80880B8F1000F02D14FF08F
:1018C000040C0BE0D1F80880B8F1010F03D14FF000
:1018D000080C1C6102E04FF0080C5C6103E04FF063
:1018E000000C00E000BF00BFFF2801D8984601E0CF
:1018F00003F104084646FF2802D84FEA820803E0B5
:10190000A2F108084FEA88084746D6F800804FF051
:101910000F0909FA07F928EA09080CFA07F900E0A3
:1019200088E048EA0908C6F80080D1F8048008F089
:101930008058B8F1805F7DD100BFDFF8C081D8F852
:10194000188048F00108DFF8B491C9F81880C8463B
:10195000D8F8188008F00108CDF8008000BF00BF5B
:101960004FEAB9384FEA920958F829504FEA82787D
:101970004FEA18794FF00F0808FA09F825EA080528
:10198000DFF87C81434502D14FF0000816E0DFF814
:101990007481434502D14FF001080FE0DFF8688100
:1019A000434502D14FF0020808E0DFF8608143456B
:1019B00002D14FF0030801E04FF004084FEA8279AA
:1019C0004FEA197908FA09F848EA0505DFF8408175
:1019D0004FEA920948F82950D1F8048008F4803879
:1019E000B8F5803F0AD1DFF82C81D8F8008048EAAA
:1019F0000008DFF82091C9F8008009E0DFF81481C1
:101A0000D8F8008028EA0008DFF80891C9F80080BB
:101A1000D1F8048008F40038B8F5003F10D1DFF8A1
:101A2000F48008F10408D8F8008048EA0008DFF8DC
:101A3000E49000E05AE009F10409C9F800800DE0E3
:101A4000DFF8D08008F10408D8F8008028EA000800
:101A5000DFF8C09009F10409C9F80080D1F80480CA
:101A600008F48018B8F5801F0ED1DFF8A88008F1BF
:101A70000808D8F8008048EA0008DFF8989009F1D3
:101A80000809C9F800800DE0DFF8888008F108082F
:101A9000D8F8008028EA0008DFF8789009F10809F2
:101AA000C9F80080D1F8048008F40018B8F5001FC8
:101AB0000ED1DFF8608008F10C08D8F8008048EA01
:101AC0000008DFF8509009F10C09C9F800800DE01A
:101AD000DFF8408008F10C08D8F8008028EA0008F8
:101AE000DFF8309009F10C09C9F80080521C102A67
:101AF000FFF48EAEBDE8F887000011100010024020
:101B000000080140000C0140001001400014014099
:101B10000800014000040140024693680B400BB1ED
:101B2000012000E000207047C2684A40C260704750
:101B30000AB1016101E00B040361704701480068CC
:101B4000704700003C000020034800680349097802
:101B500008440149086070473C0000204400002010
:101B600010B50848006840F01000064908600320DE
:101B700000F0D0F8002000F007F800F02BF800206B
:101B800010BD00000020024070B504460E480078E9
:101B90004FF47A71B1FBF0F00C490968B1FBF0F534
:101BA000284600F042FC08B1012070BD102C07D27D
:101BB00000222146501E00F06EF80548046001E046
:101BC0000120F2E70020F0E7440000204800002058
:101BD0004000002008B500BF1F48806940F00100A8
:101BE0001D4988610846806900F00100009000BF2F
:101BF00000BF032000F08EF8002211466FF00B00AA
:101C000000F049F8002211466FF00A0000F043F896
:101C1000002211466FF0090000F03DF80022114645
:101C2000501F00F038F800221146101F00F033F862
:101C300000221146901E00F02EF800221146501E80
:101C400000F029F800BF0549486820F0E06040F046
:101C50000070486000BF08BD001002400000014055
:101C600000BF00F01F0201219140034A430942F8DE
:101C7000231000BF7047000080E100E000BF00F0CB
:101C80001F02012191404209920002F1E022C2F8B4
:101C9000001100BF70472DE9F05F80460D461646E3
:101CA000002701F0EFF8074639462A46334601F08F
:101CB0000700C0F1070ABAF1040F02D94FF0040A75
:101CC00001E0C0F1070AD14600F1040ABAF1070F9A
:101CD00002D24FF0000A01E0A0F1030AD4464FF00F
:101CE000010A0AFA09FAAAF1010A0AEA020A0AFA38
:101CF0000CFA4FF0010B0BFA0CFBABF1010B0BEAEA
:101D0000030B4AEA0B042146404601F0C3F8BDE844
:101D1000F09F000000BF00F00702064B19684FF665
:101D2000FF031940044B0B4343EA0221014B1960A6
:101D300000BF70470CED00E00000FA0570B50446E6
:101D40000D4600266248006800F00700A8420ED247
:101D50005F48006820F0070028435D490860084696
:101D6000006800F00700A84201D0012070BD207873
:101D700000F00200022807D15648406820F0F00029
:101D8000A168084353494860207800F0010000280A
:101D90005DD06068012806D14E48006800F400302C
:101DA00090B90120E2E76068022806D1494800683E
:101DB00000F0007040B90120D8E74648006800F004
:101DC000020008B90120D1E74248406820F0030032
:101DD000616808433F494860FFF7B0FE0646606807
:101DE000012810D108E0FFF7A9FE801B41F28831DD
:101DF000884201D90320B9E73648406800F00C005A
:101E00000428F0D123E06068022810D108E0FFF731
:101E100095FE801B41F28831884201D90320A5E755
:101E20002C48406800F00C000828F0D10FE008E0D2
:101E3000FFF784FE801B41F28831884201D90320DC
:101E400094E72448406800F00C000028F0D12048B6
:101E5000006800F00700A8420ED91D48006820F075
:101E6000070028431A4908600846006800F0070088
:101E7000A84201D0012079E7207800F0040004286E
:101E800007D11448406820F4E060E1680843114934
:101E90004860207800F00800082808D10D48406804
:101EA00020F46050216940EAC1000A49486000F00E
:101EB0003DF808494968C1F30311074A515CC8401D
:101EC000064908600020FFF75FFE00204EE7000093
:101ED0000020024000100240784000084800002026
:101EE00001480068704700004800002000B5FFF777
:101EF000F7FF04494968C1F30221034A515CC84015
:101F000000BD0000001002408840000800B5FFF747
:101F1000E7FF04494968C1F3C221034A515CC84044
:101F200000BD00000010024088400008F0B585B0F8
:101F30000FF26C0C9CE8E01001A8A0E8E0101CA5D2
:101F40002D68009500210022002300240020194D57
:101F5000696801F00C05F5B1042D02D0082D19D1E6
:101F600001E0154819E001ADC1F38346AC5D01F411
:101F7000803555B10F4D6D68C5F340451DF80520FE
:101F80000D4D6543B5FBF2F302E00C4D04FB05F388
:101F9000184602E000BF084800BF00BF05B0F0BD12
:101FA00002030405060708090A0B0C0D0E0F10109A
:101FB000010200000010024000127A0000093D00FA
:101FC000F8B504460025207800F00100002878D0FC
:101FD000F848406800F00C0004280CD0F548406830
:101FE00000F00C00082811D1F248406800F480305D
:101FF000B0F5803F0AD1EF48006800F400300028B7
:102000005FD0606800285CD10120F8BD00BF606827
:10201000B0F5803F06D1E748006840F48030E549DC
:10202000086028E0606858B9E248006820F4803011
:10203000E04908600846006820F4802008601AE043
:102040006068B0F5A02F0BD1DA48006840F480201A
:10205000D84908600846006840F4803008600AE00B
:10206000D448006820F48030D249086008460068EF
:1020700020F48020086000BF606888B1FFF75EFD33
:10208000054606E0FFF75AFD401B642801D90320EE
:10209000BBE7C848006800F400300028F2D010E028
:1020A000FFF74CFD054606E0FFF748FD401B64289E
:1020B00001D90320A9E7BF48006800F400300028D8
:1020C000F2D1207800F00200022857D1B9484068C8
:1020D00000F00C0050B1B748406800F00C00082830
:1020E00018D1B448406800F4803098B9B14800680D
:1020F00000F0020020B12069012801D0012084E70E
:10210000AC48006820F0F800616940EAC100A949C4
:10211000086033E02069E8B10120A7490860FFF7B3
:102120000DFD054606E0FFF709FD401B022801D919
:1021300003206AE79F48006800F002000028F2D000
:102140009C48006820F0F800616940EAC1009949A4
:10215000086013E0002098490860FFF7EFFC05468F
:1021600006E0FFF7EBFC401B022801D903204CE7F7
:102170009048006800F002000028F2D1207800F0BA
:10218000080008282DD1A069B8B101208B4908604A
:10219000FFF7D4FC054606E0FFF7D0FC401B022801
:1021A00001D9032031E78348406A00F0020000288B
:1021B000F2D0012000F094FE13E000207F49086077
:1021C000FFF7BCFC054606E0FFF7B8FC401B022801
:1021D00001D9032019E77748406A00F0020000287F
:1021E000F2D1207800F00400042873D10026714851
:1021F000C06900F0805070B900BF6E48C06940F0FF
:1022000080506C49C8610846C06900F08050009059
:1022100000BF00BF01266A48006800F48070B0B9B2
:102220006748006840F4807065490860FFF786FCE5
:10223000054606E0FFF782FC401B642801D9032015
:10224000E3E65F48006800F480700028F2D000BF29
:10225000E068012806D15748006A40F0010055495E
:10226000086227E0E06858B95248006A20F001008F
:10227000504908620846006A20F00400086219E02C
:10228000E06805280BD14B48006A40F0040049493A
:1022900008620846006A40F0010008620AE045480A
:1022A000006A20F00100434908620846006A20F0F5
:1022B0000400086200BFE068A0B1FFF73FFC0546DC
:1022C00009E0FFF73BFC401B41F28831884202D90C
:1022D00003209AE622E03748006A00F00200002856
:1022E000EFD012E0FFF72AFC054608E0FFF726FCD6
:1022F000401B41F28831884201D9032085E62D48F0
:10230000006A00F002000028F0D1012E05D1294812
:10231000C06920F080502749C86100BFE069C8B398
:102320002448406800F00C00082860D0E0690228CA
:1023300048D1002020490866FFF700FC054606E06A
:10234000FFF7FCFB401B022801D903205DE619487A
:10235000006800F000700028F2D1206AB0F5803FDC
:1023600007D11448406820F40030A168084311499F
:102370004860D4E9080108430E49496821F4741102
:1023800008430C49486001200B490866FFF7D6FB5B
:10239000054607E02DE0FFF7D1FB401B022801D9DD
:1023A000032032E60348006800F000700028F2D0F5
:1023B0001FE0000000100240000042428004424240
:1023C0000070004000200C490866FFF7B7FB054687
:1023D00006E0FFF7B3FB401B022801D9032014E6F7
:1023E0000648006800F000700028F2D101E00120EA
:1023F0000BE6002009E60000000042420010024007
:10240000042808D14FF0E021096941F004014FF0A0
:10241000E022116107E04FF0E021096921F0040199
:102420004FF0E02211617047704770B504462546B1
:10243000681EB0F1807F01D301200FE0681E4FF0CD
:10244000E02148610F214FF0FF3000F023FD002014
:102450004FF0E021886107200861002070BD10B5B1
:10246000FFF7E2FF10BD70477047024600BF92F8C9
:102470003C00012801D102207047012082F83C0075
:1024800000BF022082F83D001068406820F0700014
:1024900013685860106840680B68184313685860E8
:1024A0001068806820F08000136898601068806869
:1024B0004B68184313689860012082F83D0000BF04
:1024C000002082F83C0000BF00BFD5E710B50446ED
:1024D0000CB9012010BD94F83D0028B9002084F803
:1024E0003C00204600F00CF8022084F83D00211D3D
:1024F000206800F09DFE012084F83D000020E9E7FF
:1025000038B504460D492068884215D100BF0C48F3
:10251000C06940F002000A49C8610846C06900F07D
:102520000200009000BF00BF002203211D20FFF722
:10253000B2FB1D20FFF7A2FB38BD000000040040E5
:102540000010024001460868C06840F001000A68B7
:10255000D0600868006840F001000A681060002040
:1025600070472DE9F04104460D46002600BF94F85F
:102570003C00012802D10220BDE8F081012084F84E
:102580003C0000BF022084F83D002068866826F0E9
:10259000770626F47F4620688660286850283BD05E
:1025A0000CDC202860D004DC002853D0102865D132
:1025B00055E030285DD0402860D141E0602835D01A
:1025C00070280DD0B0F5805F03D0B0F5005F55D115
:1025D00015E02068806820F00700216888604EE0E0
:1025E000D5E902136A68206800F05CFE20688668FE
:1025F00026F0770646F07706206886603FE0D5E94A
:1026000002136A68206800F04DFE2068806840F47C
:1026100080402168886032E0EA686968206800F0DC
:1026200057FE5021206800F049FE28E0EA686968FA
:10263000206800F062FE6021206800F03FFE1EE08E
:10264000EA686968206800F043FE4021206800F0D5
:1026500035FE14E00021206800F030FE0FE010216C
:10266000206800F02BFE0AE02021206800F026FE02
:1026700005E03021206800F021FE00E000BF00BF2F
:10268000012084F83D0000BF002084F83C0000BF1A
:1026900000BF71E7704710B5044620680069C0F3B9
:1026A0004000D8B12068C068C0F34000B0B16FF0FE
:1026B000020021680861012020772068806900F00D
:1026C000030018B12046FFF7E5FF05E0204600F0C3
:1026D000ADF8204600F0ABF80020207720680069B4
:1026E000C0F38000D8B12068C068C0F38000B0B1EA
:1026F0006FF004002168086102202077206880695B
:1027000000F4407018B12046FFF7C4FF05E02046F2
:1027100000F08CF8204600F08AF80020207720682E
:102720000069C0F3C000D8B12068C068C0F3C00021
:10273000B0B16FF00800216808610420207720689C
:10274000C06900F0030018B12046FFF7A3FF05E0C1
:10275000204600F06BF8204600F069F80020207752
:1027600020680069C0F30010D8B12068C068C0F3C9
:102770000010B0B16FF010002168086108202077C8
:102780002068C06900F4407018B12046FFF782FF4E
:1027900005E0204600F04AF8204600F048F8002006
:1027A00020772068006900F0010058B12068C068F7
:1027B00000F0010030B16FF001002168086120468F
:1027C00000F036F820680069C0F3C01058B12068E6
:1027D000C068C0F3C01030B16FF08000216808619C
:1027E0002046FFF740FE20680069C0F3801058B112
:1027F0002068C068C0F3801030B16FF040002168DD
:102800000861204600F01AF820680069C0F3401003
:1028100058B12068C068C0F3401030B16FF020009C
:10282000216808612046FFF71FFE10BD7047704702
:102830000121014A1170704723000020704770B5D4
:102840000446002520684069C0F3C01594F839009B
:1028500021280ED16DB12068406920F080002168E8
:102860004861206B10B1206BFEF761FD204600F03F
:10287000BCFD20684069C0F3801594F83A00222816
:102880000ED16DB12068406920F040002168486198
:10289000606B10B1606BFEF74AFD204600F095FDBD
:1028A000002070BD704710B504460CB9012010BD62
:1028B000A06900B100E000BF94F8390028B90020F9
:1028C00084F83800204600F027F8242084F83900E6
:1028D0002068C06820F400502168C860204600F0DD
:1028E0008FFD2068006920F490402168086120680D
:1028F000406920F02A00216848612068C06840F4DF
:1029000000502168C8600020E063202084F839006E
:1029100084F83A000020CAE710B586B0044625497D
:102920002068884243D100BF2348C06940F400308A
:102930002149C8610846C06900F40030019000BF19
:1029400000BF04200290022003900320059002A9FA
:102950001A48FEF753FF08200290002003900490CD
:1029600002A91648FEF74AFF1548164908600020DC
:1029700048600021134881608021C160002101610D
:1029800041618161C161FEF7BDFD18B1E2210EA078
:1029900000F086FE00BF0B486063446200BF002267
:1029A00001212620FFF777F92620FFF767F906B007
:1029B00010BD00000044004000100240000801402B
:1029C0006C000240540100202E2E2F5372632F738F
:1029D000746D3332663178785F68616C5F6D7370E7
:1029E0002E63000077B581B00446154694F83A008E
:1029F000202850D1029800B115B9012004B070BD53
:102A000000BF94F83800012801D10220F6E7012028
:102A100084F8380000BF0298A062A5850020E0631A
:102A2000222084F83A001D48616B88621C48616B63
:102A3000C8621C48616B08630020616B486302AE8A
:102A400032682368191D2B46606BFEF793FD00BFAB
:102A50000020009020680068009020684068009086
:102A600000BF00BF00BF002084F8380000BF20680E
:102A7000C06840F480702168C8602068406940F0F8
:102A80000100216848612068406940F040002168E9
:102A900048610020B2E70220B0E700007733000869
:102AA000BD33000827330008704770472DE9F8430D
:102AB00004460D4616461F464FF0000994F83900AB
:102AC00020285CD105B116B90120BDE8F88300BF0C
:102AD00094F83800012801D10220F6E7012084F89B
:102AE000380000BF0020E063212084F83900FFF7A0
:102AF00025F88146A684E6842BE0E08C401EE08425
:102B0000A068B0F5805F16D14B4600228021204698
:102B1000009700F059FD08B10320D6E7A846B8F8A1
:102B20000000C0F3080021684860206908B9AD1CA6
:102B30000FE06D1C0DE04B460022802120460097DF
:102B400000F042FD08B10320BFE715F8010B216832
:102B50004860E08C0028D0D14B460022402120461E
:102B6000009700F031FD08B10320AEE7202084F883
:102B7000390000BF002084F8380000BFA5E702201C
:102B8000A3E700BFFEE700001FB54FF480400090B0
:102B9000002001900120029069460248FEF72EFEB7
:102BA0001FBD0000000C01402DE9F04705460E4610
:102BB00017462846FDF7F9FE8046281DFDF7F5FE6D
:102BC000814608F0FF00FF2803D009F0FF00FF282E
:102BD00005D13A4631462846FDF7EAFE0DE00024CD
:102BE00009E0042101FB0450FDF7DFFEC0B246F806
:102BF0002400601CC4B2BC42F3DBBDE8F0870000D7
:102C000010B50F480F4908600920486000210D48A1
:102C10008160C1604FF4C02101614FF4E001416166
:102C200000218161C161016241628162C162FEF77E
:102C30009DF820B140F29D1103A000F031FD10BDC0
:102C400000640040900000202E2E2F5372632F6DE1
:102C500061696E2E6300000008B500BF0A48406934
:102C600040F00100084948610846406900F0010051
:102C7000009000BF00BF002211461020FFF70BF8A4
:102C80001020FEF7FBFF08BD0010024000B585B024
:102C900000BF3548806940F020003349886108460C
:102CA000806900F02000009000BF00BF00BF084610
:102CB000806940F0040088610846806900F00400E3
:102CC000009000BF00BF00BF0846806940F00800C8
:102CD00088610846806900F00800009000BF00BFCE
:102CE00000224FF248012148FEF722FF40F2024045
:102CF000019000200290039001A91C48FEF77EFD80
:102D0000042001901A4802900120039001A917485D
:102D1000FEF774FD4FF40060019000200290012046
:102D2000039001A91148FEF769FD4FF4704001902E
:102D3000012002900320049001A90C48FEF75EFDDB
:102D400048200190012002900220049001A9074828
:102D5000FEF754FD002202210820FEF79CFF082008
:102D6000FEF78CFF05B000BD00100240000C0140D2
:102D70000000111000B587B019481A49086041F6E3
:102D80001F40486000211748816041F28731C160CF
:102D9000002101618161FFF799FB20B140F2B1117F
:102DA00011A000F07DFC4FF48050039003A90D4862
:102DB000FFF7D7FB20B140F2B7110BA000F070FC79
:102DC00000200190029001A90648FFF74EFB20B1B8
:102DD0004FF4DF7104A000F063FC07B000BD0000F9
:102DE00000040040D40000202E2E2F5372632F6D5C
:102DF00061696E2E6300000010B50C480C49086034
:102E00004FF4E1304860002109488160C1600161F0
:102E10000C21416100218161C161FFF744FD20B1B6
:102E200040F2D11103A000F03BFC10BD0044004073
:102E3000140100202E2E2F5372632F6D61696E2EA8
:102E40006300000000BFFEE770B505460C46002099
:102E50006061A0610120E061002020606060A060EE
:102E6000E0600E2060620020206101202062214687
:102E70002846FDF7BEFD00212846FEF769F870BD23
:102E80007047000002480068C0F30220704700004D
:102E90000CED00E010B5002807DA0A07140E054A09
:102EA00000F00F031B1FD45403E00A07130E024A5D
:102EB000135410BD18ED00E000E400E01FB54FF41E
:102EC0008040009001200190032003906946024851
:102ED000FEF794FC1FBD0000000C0140704700008D
:102EE00008B508490968C9084FF47A72B1FBF2F1D4
:102EF0004143009100BF00BF00994A1E0092002983
:102F0000F9D108BD4800002010B54FF480410348B6
:102F1000FEF702FE0446204610BD0000000C0140F2
:102F20007047000010B50122D1030248FEF700FEF1
:102F300010BD0000000C014010B501221103024831
:102F4000FEF7F6FD10BD0000000C014010B5012297
:102F500051030248FEF7ECFD10BD0000000C0140DB
:102F600010B5012291030248FEF7E2FD10BD0000FA
:102F7000000C014010B5FEF7E7FDFFF770FA10BD39
:102F800010B590B001200690000407900020089032
:102F900001200A9002200D90C1030E914FF4E01120
:102FA0000F9106A8FFF70CF820B14FF4B77115A0E8
:102FB00000F076FB0F200190022002900020039089
:102FC0004FF48060049000200590022101A8FEF7D4
:102FD000B5FE20B14FF4BE710AA000F061FBFEF710
:102FE0007FFF4FF47A71B0FBF1F42046FFF71DFA32
:102FF0000420FFF705FA00221146501EFEF74BFE93
:1030000010B010BD2E2E2F5372632F6D61696E2E7E
:10301000630000001148006840F001000F4908609B
:10302000084640680E4908400C4948600846006858
:103030000C490840094908600846006820F48020CF
:1030400008600846406820F4FE0048604FF41F0006
:103050008860C803044908607047000000100240FF
:103060000000FFF8FFFFF6FE08ED00E00EB50022BD
:1030700008212A48FEF75CFD29A207CA8DE807004F
:103080004FF47A730A2269462848FFF70FFD64203F
:10309000FDF796FB0021622000F078F86420FDF730
:1030A0008FFB0021602000F071F86420FDF788FBA1
:1030B0000021662000F06AF86420FDF781FB002102
:1030C000642000F063F86420FDF77AFB0021702093
:1030D00000F05CF86420FDF773FB0021722000F023
:1030E00055F86420FDF76CFB0021742000F04EF8C9
:1030F0006420FDF765FB0021762000F047F864208E
:10310000FDF75EFB0021782000F040F86420FDF719
:1031100057FB00217A2000F039F80EBD000C014069
:103120005AA5078200845A01000000001401002003
:103130000EB506A207CA8DE807004FF47A730A227B
:1031400069460548FFF7B2FC0EBD00005AA507828C
:1031500000845A0100110000140100203EB504460D
:1031600006A207CA8DE807008DF809404FF47A736C
:103170000A2269460448FFF799FC3EBD5AA507821A
:1031800000845A0100000000140100207CB50546AF
:103190000C4608A103C9CDE900018DF805508DF852
:1031A00007404FF47A73082269460448FFF77EFC13
:1031B0007CBD00005AA5058210000001140100200A
:1031C0007FB505460C4611A003C8CDE9020111A147
:1031D00003C9CDE90001280A8DF80600E8B28DF890
:1031E00007004FF47A73082269460C48FFF75EFC2B
:1031F000200A8DF80E00E0B28DF80F004FF47A73BC
:10320000082202A90548FFF751FC7FBD5AA5058297
:10321000106A00005AA50582106B000014010020FE
:1032200010B50248FFF737FA10BD0000D4000020A7
:1032300000220268184B984208D0B0F1804F05D0A8
:10324000164B984202D0164B984203D122F07002DE
:103250004B681A43104B984208D0B0F1804F05D00C
:103260000E4B984202D00E4B984203D122F440728A
:10327000CB681A4322F080024B691A4302608B68C4
:10328000C3620B688362044B984201D10B690363EC
:103290000123436170470000002C014000040040FE
:1032A0000008004030B50C460021816821F47F41C0
:1032B00042EA032525432943816030BD0A460021A7
:1032C000816821F0700142F0070319438160704763
:1032D00030B50B46144600210022026A056A25F02B
:1032E00001050562816921F0F00141EA041122F033
:1032F0000A021A438161026230BD30B50B461446A2
:1033000000210022056A25F0100505628169026A24
:1033100021F4704141EA043122F0A00242EA031292
:103320008161026230BD70B506460025746A20686E
:103330004069C0F3C01594F83900212805D125B1A2
:103340000020E084204600F050F820684069C0F377
:10335000801594F83A00222805D125B10020E08597
:10336000204600F032F8E06B40F01000E0632046A9
:10337000FFF798FA70BD70B505466C6A286800685A
:1033800000F02000B0B90020E0852068C06820F47B
:1033900080702168C8602068406920F001002168C1
:1033A00048612068406920F0400021684861202081
:1033B00084F83A002046FFF777FB70BD70B50446ED
:1033C000656A2846FFF771FB70BD0168C96821F482
:1033D00090710268D1600168496921F001010268B9
:1033E0005161202180F83A1070470168C96821F0C6
:1033F000C0010268D160202180F8391070470000B8
:103400002DE9F041044600252068006920F4405071
:10341000E1680843216808612169A068084361697F
:10342000084305432068C06841F20C618843284383
:103430002168C8602068406920F44070A169084391
:10344000216848615F49206888425CD1FEF75EFDD3
:1034500000EBC00101EB001061688900B0FBF1F6E0
:10346000FEF754FD00EBC00101EB0010616889001C
:10347000B0FBF1F06421B0FBF1F000EBC00101EB17
:103480000010A6EB8000322101EB00106421B0FB9C
:10349000F1F000F0F006FEF739FD00EBC00101EBA2
:1034A000001061688900B0FBF1F06421B0FBF1F01D
:1034B00006EB0016FEF72AFD00EBC00101EB001041
:1034C00061688900B0FBF1F7FEF720FD00EBC00159
:1034D00001EB001061688900B0FBF1F06421B0FBE2
:1034E000F1F000EBC00101EB0010A7EB80003221EE
:1034F00001EB00106421B0FBF1F000F00F0030444C
:10350000216888605BE0FEF7F1FC00EBC00101EB95
:10351000001061688900B0FBF1F6FEF7E7FC00EBF4
:10352000C00101EB001061688900B0FBF1F064217B
:10353000B0FBF1F000EBC00101EB0010A6EB800046
:10354000322101EB00106421B0FBF1F000F0F00635
:10355000FEF7CCFC00EBC00101EB001061688900B4
:10356000B0FBF1F06421B0FBF1F006EB0016FEF7C2
:10357000BDFC00EBC00101EB001061688900B0FBED
:10358000F1F7FEF7B3FC00EBC00101EB001061683E
:103590008900B0FBF1F06421B0FBF1F000EBC00159
:1035A00001EB0010A7EB8000322101EB0010642139
:1035B000B0FBF1F000F00F00304421688860BDE8F6
:1035C000F0810000003801402DE9F04104460D462D
:1035D00017469846069E21E0701CF8B12EB1FEF702
:1035E000ADFAA0EB0800B04218D92068C06820F4FA
:1035F000D0702168C8602068406920F0010021680F
:103600004861202084F8390084F83A0000BF002087
:1036100084F8380000BF0320BDE8F081206800680E
:103620002840A84201D1012000E00020B842D3D0B8
:103630000020F1E738B50024114800680068C0F3A5
:103640000014DCB100BF002000900D480068006845
:1036500000900B4800684068009000BF00BF084819
:10366000006805680648006845680548FFF7E7F800
:1036700004480068456801200349087038BD00000F
:1036800014010020540100201C00002010B5024845
:10369000FDF742FA10BD00009000002000BFFEE7D9
:1036A00000BFFEE702E008C8121F08C1002AFAD1D5
:1036B00070477047002001E001C1121F002AFBD1B2
:1036C00070472DE9F04104460D460027002608E02A
:1036D00000F045F820700A20FDF772F8641C701C99
:1036E000C6B2AE42F4DB00F04FFC00F059FC3846A5
:1036F000BDE8F08110B5044644F0800000F08EFC77
:1037000000F001F810BD70B50024FDF707F8FFF7D1
:103710003BFA3220FDF754F8082514E0FDF712F8C3
:103720006006040E3220FDF74BF8FFF70FFC322045
:10373000FDF746F8FFF7E8FB10B144F0010400E0A4
:1037400000BF681EC5B2002DE8D1FCF7FBFFFFF7F4
:10375000B5FBFFF705FCFFF7E5FB204670BD70B534
:103760000024FFF7DFFBFFF70FFAFCF7EBFF0A205F
:10377000FDF726F8FCF7DCFF3220FDF721F80025E5
:1037800014E06006040EFFF7E1FB3220FDF718F8A5
:10379000FFF7BAFB10B144F0010400E000BFFCF7F2
:1037A000D1FF3220FDF70CF8681CC5B2082DE8DB0C
:1037B000FCF7C8FF3220FDF703F83220FDF700F8D0
:1037C000FFF7BAFB0A20FCF7FBFF3220FCF7F8FFFB
:1037D0003220FCF7F5FF204670BD00000024FEF704
:1037E000BFF9FFF7CDFBFFF751FAFFF735FAFFF707
:1037F00007FAFFF7BFFAFFF7FFFAF948F94908613E
:10380000F948C860F949FA48FCF73CFF4820FCF742
:10381000CDFF00F09DFBF749F548FFF715FBF64893
:10382000FEF790FE0222F549F548FFF7BDF9F5488D
:10383000FCF7C6FFF1490878FFF790FC40F6B83076
:10384000FCF7BEFFF0480068C06840F01000EE4989
:103850000968C860FAE24021EC48FEF765F96E227B
:10386000EB49E948FFF7BEF8EA480078012850D153
:103870000020E8490870E648007930283AD1E44849
:10388000C079AA2836D1E248007AB0281CD1E04895
:10389000407A50B9DE48807A38B90120D7490860AB
:1038A0000222D748FDF784F824E0D948407A01285D
:1038B00020D1D748807AE8B90020D0490860022298
:1038C000CF48FDF775F815E0D148007AB12811D13D
:1038D000CF48407A012806D1C84948600222C8482A
:1038E000FDF766F806E00020C44948600222C4489B
:1038F000FDF75EF8C648007940280AD1C4484079EF
:10390000012806D1C2488079022802D10120C2498B
:103910000870C248007801287ED10020BF49087095
:1039200000224021B948FEF703F90820FEF798F974
:103930000C21BB48FFF7C5FE0020BA49087000BF44
:1039400008E0B749095CB74A12785140B54A11708E
:10395000411CC8B20B28F4DBB148C07AB1490978E0
:10396000884274D1AF480078002870D0AC48C17844
:103970009C48C173AA4801799A488173A848417943
:1039800098484173A648807996490873A448C1793C
:103990009448C174A248017A92488174A048417A3F
:1039A000904841749E48807A8E4908740869FCF7F3
:1039B00090FC85B28B49C868FCF78BFC86B229461F
:1039C0003046FFF7FDFB8749C8684FF08541FCF79B
:1039D000B9FB8146FCF7AAFC07460022924BFCF794
:1039E00009FC0546FCF789FC9049C8707D490869C7
:1039F000FCF79CFC074600228B4BFCF7FBFB0546C3
:103A0000FCF77BFC894908717649C8684FF085410D
:103A1000FCF798FB814600E01EE0FCF787FC0746B8
:103A20000022814BFCF7E6FB0546FCF766FC80496B
:103A3000C8706C490869FCF779FC074600227A4B8C
:103A4000FCF7D8FB0546FCF758FC7949087100F0F3
:103A50007FFA0820FEF712F940F2E730FCF7B0FEDB
:103A60006648006800287DD16D48407850B9FF2035
:103A70006B494870084680786E49087041F288307A
:103A80006D4908805D484068012804D10022082162
:103A90005E48FEF74DF868480088002804DD664857
:103AA0000088401E644908806348008841F28731DD
:103AB00088427DD1FFF73CFB5048406820B9012285
:103AC00008215248FEF734F86420FCF779FE594883
:103AD000007862280ED10121FFF758FB5448007886
:103AE00040F01000524908700846407840F040000D
:103AF00048705CE14F48007860280ED10121FFF743
:103B000045FB4B48007840F01000494908700846D2
:103B1000407840F08000487049E1464800786628C7
:103B20000ED10121FFF732FB4148007840F0080038
:103B30003F4908700846407840F01000487036E170
:103B40003C480078642810D10121FFF71FFB38485A
:103B5000007840F00800364908700846407840F088
:103B6000200000E004E1487021E13248007870282C
:103B70000ED10121FFF70AFB2D48007840F020000C
:103B80002B4908700846807840F0010088700EE1EB
:103B900028480078722810D10121FFF7F7FA24484D
:103BA000007840F02000224908700846807800E044
:103BB000C9E040F002008870F9E01E4800787428DF
:103BC0003CD10121FFF7E2FA1948007840F02000CB
:103BD000174908700846807840F004008870E6E0D5
:103BE00000004842080200200000A041D8E9FE1869
:103BF000900000201C020020D400002014000020AF
:103C00000080000820A1070014010020000C0140E2
:103C1000980100201C000020200000203800002017
:103C200000000020210000200000E03F2C000020C8
:103C3000240000201D0000201E0000208448007881
:103C400076280ED10121FFF7A1FA8248007840F0D2
:103C50002000804908700846807840F0080088708D
:103C6000A5E07B48007878280ED10121FFF78EFA75
:103C70007848007840F0200076490870084680783F
:103C800040F01000887092E0714800787A280ED1D8
:103C90000121FFF77BFA6F48007840F020006D4962
:103CA00008700846807840F0200088707FE06848FF
:103CB00000786A280ED10121FFF768FA654800787C
:103CC00040F00400634908700846407840F0040062
:103CD00048706CE05E48007868280ED10121FFF73B
:103CE00055FA5C48007840F004005A4908700846CC
:103CF000407840F00800487059E0554800786F2837
:103D00000ED10121FFF742FA5248007840F002003C
:103D1000504908700846407840F00100487046E07D
:103D20004B4800786C2842D10121FFF72FFA49480F
:103D3000007840F00200474908700846407840F09B
:103D40000200487033E04448008801282FD1002445
:103D500004E000203F490855601CC4B2032CF8DB86
:103D6000FFF784F9002208213C48FDF7E1FE1EE040
:103D70003948008800281ADD39480068012816D122
:103D8000002404E0002033490855601CC4B2032C11
:103D9000F8DB002030490880FFF768F930490878DF
:103DA000FFF7DCF9002208212C48FDF7C1FE2D4861
:103DB000007801284AD100202A4908702A48007852
:103DC00013282ADD29480078012810D0002407E0B4
:103DD0002748015D2748006B14300155601CC4B2B0
:103DE000082CF5DB64212348FDF748F92EE0FFF7A6
:103DF0003DF9002407E01748015D1E48006B1430B0
:103E00000155601CC4B2082CF5DB64211948FDF78C
:103E100035F900201549087018E013480078401C57
:103E20001149087001201349096B0875012407E046
:103E30000F48015D0F48006B14300155601CC4B27F
:103E4000082CF5DB64210B48FDF718F903E50000A9
:103E50001D000020240000201E000020000C014056
:103E60001400002023000020220000202000002059
:103E70002C0000209000002010B5044604F57C5072
:103E800000F0C0F810BD000010B501221103054874
:103E9000FDF74EFE00224FF400510248FDF748FEA8
:103EA00010BD0000000C014010B54720FFF722FCB8
:103EB000044604F0E00404F58E41083188B200F0B5
:103EC000A1F80A20FDF7A4FB4720FFF713FC0446E6
:103ED00014B90A20FDF79CFB10BD10B5044604F58B
:103EE000804000F08FF810BD70B505460E461148B1
:103EF0000660FFF7C9FF00F075F81420FDF788FB96
:103F000000F054F81420FDF783FB00F05DF8142056
:103F1000FDF77EFB002406E0295D41EA042000F065
:103F200071F8601CC4B23E2CF6DB00F039F800F0EA
:103F30004BF870BD4C00002070B504460D46A20041
:103F400005FA02F101F5824188B200F05BF870BD1C
:103F500010B501200A490870487088701020C87098
:103F60000848FFF7C1FF0020FFF7B7FF0621002038
:103F7000FFF7E2FFFF20FFF77FFFFFF795FF10BD80
:103F8000340000205000002010B54420FFF7B2FBA1
:103F9000044604F58841091D88B200F033F810BDCD
:103FA00010B544F2FF2000F02DF810BD10B54720E9
:103FB000FFF7A0FB044604F0E00404F58E41103145
:103FC00088B200F01FF810BD10B54720FFF792FB34
:103FD000044604F0E00404F58E41891C88B200F028
:103FE00011F810BD10B501224FF450410448FDF7FF
:103FF0009FFD00224FF400510148FDF799FD10BDCF
:10400000000C014010B50446C4F3062000F006F889
:10401000E0B200F003F8FEF785FF10BD70B504466E
:10402000FEF78AFFFEF74AFFFEF79AFFFCF78AFBCE
:10403000FCF774FB3220FCF7C3FB082515E0FCF706
:1040400081FB3220FCF7BCFB04F0800010B1FEF7CE
:1040500087FF01E0FCF780FBFEF778FF6006040EA7
:104060003220FCF7ADFB681EC5B2002DE7DCFCF783
:1040700069FBFEF775FF70BD000000000000000046
:1040800001020304060708090000000001020304FE
:10409000B04000080000002090000000A436000896
:1040A000404100089000002018060000B4360008C7
:1040B00000010000000000000000000000000000FF
:1040C00000000000000000000000000000000000F0
:1040D000000000000000000000FFFFFF00000000E3
:1040E00000FFFFFF000000000000000000000000D3
:1040F000100000000100000000A24A0400000000BF
:10410000724244150D639A80C6530100621E00106E
:104110008414E000279F00D42DAA0038010120213B
:104120000784000019000000ACAE53D44049FF5D85
:10413000120090FA000040C0000020CA07004800AA
:04000005080000ED02
:00000001FF
